{
  "_format": "hh-sol-artifact-1",
  "contractName": "AEGISToken",
  "sourceName": "contracts/AEGISToken.sol",
  "abi": [
    {
      "inputs": [],
      "stateMutability": "nonpayable",
      "type": "constructor"
    },
    {
      "inputs": [],
      "name": "AccessControlBadConfirmation",
      "type": "error"
    },
    {
      "inputs": [
        {
          "internalType": "address",
          "name": "account",
          "type": "address"
        },
        {
          "internalType": "bytes32",
          "name": "neededRole",
          "type": "bytes32"
        }
      ],
      "name": "AccessControlUnauthorizedAccount",
      "type": "error"
    },
    {
      "inputs": [
        {
          "internalType": "address",
          "name": "spender",
          "type": "address"
        },
        {
          "internalType": "uint256",
          "name": "allowance",
          "type": "uint256"
        },
        {
          "internalType": "uint256",
          "name": "needed",
          "type": "uint256"
        }
      ],
      "name": "ERC20InsufficientAllowance",
      "type": "error"
    },
    {
      "inputs": [
        {
          "internalType": "address",
          "name": "sender",
          "type": "address"
        },
        {
          "internalType": "uint256",
          "name": "balance",
          "type": "uint256"
        },
        {
          "internalType": "uint256",
          "name": "needed",
          "type": "uint256"
        }
      ],
      "name": "ERC20InsufficientBalance",
      "type": "error"
    },
    {
      "inputs": [
        {
          "internalType": "address",
          "name": "approver",
          "type": "address"
        }
      ],
      "name": "ERC20InvalidApprover",
      "type": "error"
    },
    {
      "inputs": [
        {
          "internalType": "address",
          "name": "receiver",
          "type": "address"
        }
      ],
      "name": "ERC20InvalidReceiver",
      "type": "error"
    },
    {
      "inputs": [
        {
          "internalType": "address",
          "name": "sender",
          "type": "address"
        }
      ],
      "name": "ERC20InvalidSender",
      "type": "error"
    },
    {
      "inputs": [
        {
          "internalType": "address",
          "name": "spender",
          "type": "address"
        }
      ],
      "name": "ERC20InvalidSpender",
      "type": "error"
    },
    {
      "inputs": [],
      "name": "EnforcedPause",
      "type": "error"
    },
    {
      "inputs": [],
      "name": "ExpectedPause",
      "type": "error"
    },
    {
      "inputs": [],
      "name": "ReentrancyGuardReentrantCall",
      "type": "error"
    },
    {
      "anonymous": false,
      "inputs": [
        {
          "indexed": true,
          "internalType": "address",
          "name": "owner",
          "type": "address"
        },
        {
          "indexed": true,
          "internalType": "address",
          "name": "spender",
          "type": "address"
        },
        {
          "indexed": false,
          "internalType": "uint256",
          "name": "value",
          "type": "uint256"
        }
      ],
      "name": "Approval",
      "type": "event"
    },
    {
      "anonymous": false,
      "inputs": [
        {
          "indexed": false,
          "internalType": "address",
          "name": "account",
          "type": "address"
        }
      ],
      "name": "Paused",
      "type": "event"
    },
    {
      "anonymous": false,
      "inputs": [
        {
          "indexed": true,
          "internalType": "address",
          "name": "staker",
          "type": "address"
        },
        {
          "indexed": false,
          "internalType": "uint256",
          "name": "reward",
          "type": "uint256"
        }
      ],
      "name": "RewardsClaimed",
      "type": "event"
    },
    {
      "anonymous": false,
      "inputs": [
        {
          "indexed": true,
          "internalType": "bytes32",
          "name": "role",
          "type": "bytes32"
        },
        {
          "indexed": true,
          "internalType": "bytes32",
          "name": "previousAdminRole",
          "type": "bytes32"
        },
        {
          "indexed": true,
          "internalType": "bytes32",
          "name": "newAdminRole",
          "type": "bytes32"
        }
      ],
      "name": "RoleAdminChanged",
      "type": "event"
    },
    {
      "anonymous": false,
      "inputs": [
        {
          "indexed": true,
          "internalType": "bytes32",
          "name": "role",
          "type": "bytes32"
        },
        {
          "indexed": true,
          "internalType": "address",
          "name": "account",
          "type": "address"
        },
        {
          "indexed": true,
          "internalType": "address",
          "name": "sender",
          "type": "address"
        }
      ],
      "name": "RoleGranted",
      "type": "event"
    },
    {
      "anonymous": false,
      "inputs": [
        {
          "indexed": true,
          "internalType": "bytes32",
          "name": "role",
          "type": "bytes32"
        },
        {
          "indexed": true,
          "internalType": "address",
          "name": "account",
          "type": "address"
        },
        {
          "indexed": true,
          "internalType": "address",
          "name": "sender",
          "type": "address"
        }
      ],
      "name": "RoleRevoked",
      "type": "event"
    },
    {
      "anonymous": false,
      "inputs": [
        {
          "indexed": true,
          "internalType": "address",
          "name": "to",
          "type": "address"
        },
        {
          "indexed": false,
          "internalType": "uint256",
          "name": "amount",
          "type": "uint256"
        },
        {
          "indexed": false,
          "internalType": "string",
          "name": "reason",
          "type": "string"
        }
      ],
      "name": "TokensMinted",
      "type": "event"
    },
    {
      "anonymous": false,
      "inputs": [
        {
          "indexed": true,
          "internalType": "address",
          "name": "staker",
          "type": "address"
        },
        {
          "indexed": false,
          "internalType": "uint256",
          "name": "amount",
          "type": "uint256"
        },
        {
          "indexed": false,
          "internalType": "uint256",
          "name": "lockPeriod",
          "type": "uint256"
        }
      ],
      "name": "TokensStaked",
      "type": "event"
    },
    {
      "anonymous": false,
      "inputs": [
        {
          "indexed": true,
          "internalType": "address",
          "name": "staker",
          "type": "address"
        },
        {
          "indexed": false,
          "internalType": "uint256",
          "name": "amount",
          "type": "uint256"
        },
        {
          "indexed": false,
          "internalType": "uint256",
          "name": "reward",
          "type": "uint256"
        }
      ],
      "name": "TokensUnstaked",
      "type": "event"
    },
    {
      "anonymous": false,
      "inputs": [
        {
          "indexed": true,
          "internalType": "address",
          "name": "from",
          "type": "address"
        },
        {
          "indexed": true,
          "internalType": "address",
          "name": "to",
          "type": "address"
        },
        {
          "indexed": false,
          "internalType": "uint256",
          "name": "value",
          "type": "uint256"
        }
      ],
      "name": "Transfer",
      "type": "event"
    },
    {
      "anonymous": false,
      "inputs": [
        {
          "indexed": false,
          "internalType": "address",
          "name": "account",
          "type": "address"
        }
      ],
      "name": "Unpaused",
      "type": "event"
    },
    {
      "inputs": [],
      "name": "DEFAULT_ADMIN_ROLE",
      "outputs": [
        {
          "internalType": "bytes32",
          "name": "",
          "type": "bytes32"
        }
      ],
      "stateMutability": "view",
      "type": "function"
    },
    {
      "inputs": [],
      "name": "INITIAL_SUPPLY",
      "outputs": [
        {
          "internalType": "uint256",
          "name": "",
          "type": "uint256"
        }
      ],
      "stateMutability": "view",
      "type": "function"
    },
    {
      "inputs": [],
      "name": "MAX_SUPPLY",
      "outputs": [
        {
          "internalType": "uint256",
          "name": "",
          "type": "uint256"
        }
      ],
      "stateMutability": "view",
      "type": "function"
    },
    {
      "inputs": [],
      "name": "MINTER_ROLE",
      "outputs": [
        {
          "internalType": "bytes32",
          "name": "",
          "type": "bytes32"
        }
      ],
      "stateMutability": "view",
      "type": "function"
    },
    {
      "inputs": [],
      "name": "PAUSER_ROLE",
      "outputs": [
        {
          "internalType": "bytes32",
          "name": "",
          "type": "bytes32"
        }
      ],
      "stateMutability": "view",
      "type": "function"
    },
    {
      "inputs": [],
      "name": "VESTING_DURATION",
      "outputs": [
        {
          "internalType": "uint256",
          "name": "",
          "type": "uint256"
        }
      ],
      "stateMutability": "view",
      "type": "function"
    },
    {
      "inputs": [
        {
          "internalType": "address",
          "name": "owner",
          "type": "address"
        },
        {
          "internalType": "address",
          "name": "spender",
          "type": "address"
        }
      ],
      "name": "allowance",
      "outputs": [
        {
          "internalType": "uint256",
          "name": "",
          "type": "uint256"
        }
      ],
      "stateMutability": "view",
      "type": "function"
    },
    {
      "inputs": [
        {
          "internalType": "address",
          "name": "spender",
          "type": "address"
        },
        {
          "internalType": "uint256",
          "name": "value",
          "type": "uint256"
        }
      ],
      "name": "approve",
      "outputs": [
        {
          "internalType": "bool",
          "name": "",
          "type": "bool"
        }
      ],
      "stateMutability": "nonpayable",
      "type": "function"
    },
    {
      "inputs": [
        {
          "internalType": "address",
          "name": "account",
          "type": "address"
        }
      ],
      "name": "balanceOf",
      "outputs": [
        {
          "internalType": "uint256",
          "name": "",
          "type": "uint256"
        }
      ],
      "stateMutability": "view",
      "type": "function"
    },
    {
      "inputs": [
        {
          "internalType": "uint256",
          "name": "value",
          "type": "uint256"
        }
      ],
      "name": "burn",
      "outputs": [],
      "stateMutability": "nonpayable",
      "type": "function"
    },
    {
      "inputs": [
        {
          "internalType": "address",
          "name": "account",
          "type": "address"
        },
        {
          "internalType": "uint256",
          "name": "value",
          "type": "uint256"
        }
      ],
      "name": "burnFrom",
      "outputs": [],
      "stateMutability": "nonpayable",
      "type": "function"
    },
    {
      "inputs": [
        {
          "internalType": "address",
          "name": "account",
          "type": "address"
        },
        {
          "internalType": "uint256",
          "name": "stakeIndex",
          "type": "uint256"
        }
      ],
      "name": "calculateRewards",
      "outputs": [
        {
          "internalType": "uint256",
          "name": "",
          "type": "uint256"
        }
      ],
      "stateMutability": "view",
      "type": "function"
    },
    {
      "inputs": [],
      "name": "decimals",
      "outputs": [
        {
          "internalType": "uint8",
          "name": "",
          "type": "uint8"
        }
      ],
      "stateMutability": "view",
      "type": "function"
    },
    {
      "inputs": [],
      "name": "ecosystemAllocation",
      "outputs": [
        {
          "internalType": "uint256",
          "name": "",
          "type": "uint256"
        }
      ],
      "stateMutability": "view",
      "type": "function"
    },
    {
      "inputs": [],
      "name": "ecosystemReleased",
      "outputs": [
        {
          "internalType": "uint256",
          "name": "",
          "type": "uint256"
        }
      ],
      "stateMutability": "view",
      "type": "function"
    },
    {
      "inputs": [],
      "name": "getDistributionStatus",
      "outputs": [
        {
          "internalType": "uint256",
          "name": "_teamReleased",
          "type": "uint256"
        },
        {
          "internalType": "uint256",
          "name": "_ecosystemReleased",
          "type": "uint256"
        },
        {
          "internalType": "uint256",
          "name": "_publicSaleReleased",
          "type": "uint256"
        },
        {
          "internalType": "uint256",
          "name": "_liquidityReleased",
          "type": "uint256"
        },
        {
          "internalType": "uint256",
          "name": "_reserveReleased",
          "type": "uint256"
        },
        {
          "internalType": "uint256",
          "name": "_totalSupply",
          "type": "uint256"
        },
        {
          "internalType": "uint256",
          "name": "_maxSupply",
          "type": "uint256"
        }
      ],
      "stateMutability": "view",
      "type": "function"
    },
    {
      "inputs": [
        {
          "internalType": "bytes32",
          "name": "role",
          "type": "bytes32"
        }
      ],
      "name": "getRoleAdmin",
      "outputs": [
        {
          "internalType": "bytes32",
          "name": "",
          "type": "bytes32"
        }
      ],
      "stateMutability": "view",
      "type": "function"
    },
    {
      "inputs": [
        {
          "internalType": "address",
          "name": "account",
          "type": "address"
        }
      ],
      "name": "getStakes",
      "outputs": [
        {
          "components": [
            {
              "internalType": "uint256",
              "name": "amount",
              "type": "uint256"
            },
            {
              "internalType": "uint256",
              "name": "startTime",
              "type": "uint256"
            },
            {
              "internalType": "uint256",
              "name": "lockPeriod",
              "type": "uint256"
            },
            {
              "internalType": "uint256",
              "name": "rewardRate",
              "type": "uint256"
            }
          ],
          "internalType": "struct AEGISToken.Stake[]",
          "name": "",
          "type": "tuple[]"
        }
      ],
      "stateMutability": "view",
      "type": "function"
    },
    {
      "inputs": [
        {
          "internalType": "bytes32",
          "name": "role",
          "type": "bytes32"
        },
        {
          "internalType": "address",
          "name": "account",
          "type": "address"
        }
      ],
      "name": "grantRole",
      "outputs": [],
      "stateMutability": "nonpayable",
      "type": "function"
    },
    {
      "inputs": [
        {
          "internalType": "bytes32",
          "name": "role",
          "type": "bytes32"
        },
        {
          "internalType": "address",
          "name": "account",
          "type": "address"
        }
      ],
      "name": "hasRole",
      "outputs": [
        {
          "internalType": "bool",
          "name": "",
          "type": "bool"
        }
      ],
      "stateMutability": "view",
      "type": "function"
    },
    {
      "inputs": [],
      "name": "liquidityAllocation",
      "outputs": [
        {
          "internalType": "uint256",
          "name": "",
          "type": "uint256"
        }
      ],
      "stateMutability": "view",
      "type": "function"
    },
    {
      "inputs": [],
      "name": "liquidityReleased",
      "outputs": [
        {
          "internalType": "uint256",
          "name": "",
          "type": "uint256"
        }
      ],
      "stateMutability": "view",
      "type": "function"
    },
    {
      "inputs": [
        {
          "internalType": "address",
          "name": "to",
          "type": "address"
        },
        {
          "internalType": "uint256",
          "name": "amount",
          "type": "uint256"
        },
        {
          "internalType": "string",
          "name": "reason",
          "type": "string"
        }
      ],
      "name": "mint",
      "outputs": [],
      "stateMutability": "nonpayable",
      "type": "function"
    },
    {
      "inputs": [],
      "name": "name",
      "outputs": [
        {
          "internalType": "string",
          "name": "",
          "type": "string"
        }
      ],
      "stateMutability": "view",
      "type": "function"
    },
    {
      "inputs": [],
      "name": "pause",
      "outputs": [],
      "stateMutability": "nonpayable",
      "type": "function"
    },
    {
      "inputs": [],
      "name": "paused",
      "outputs": [
        {
          "internalType": "bool",
          "name": "",
          "type": "bool"
        }
      ],
      "stateMutability": "view",
      "type": "function"
    },
    {
      "inputs": [],
      "name": "publicSaleAllocation",
      "outputs": [
        {
          "internalType": "uint256",
          "name": "",
          "type": "uint256"
        }
      ],
      "stateMutability": "view",
      "type": "function"
    },
    {
      "inputs": [],
      "name": "publicSaleReleased",
      "outputs": [
        {
          "internalType": "uint256",
          "name": "",
          "type": "uint256"
        }
      ],
      "stateMutability": "view",
      "type": "function"
    },
    {
      "inputs": [
        {
          "internalType": "address",
          "name": "to",
          "type": "address"
        },
        {
          "internalType": "uint256",
          "name": "amount",
          "type": "uint256"
        }
      ],
      "name": "releaseEcosystemTokens",
      "outputs": [],
      "stateMutability": "nonpayable",
      "type": "function"
    },
    {
      "inputs": [
        {
          "internalType": "address",
          "name": "to",
          "type": "address"
        },
        {
          "internalType": "uint256",
          "name": "amount",
          "type": "uint256"
        }
      ],
      "name": "releaseLiquidityTokens",
      "outputs": [],
      "stateMutability": "nonpayable",
      "type": "function"
    },
    {
      "inputs": [
        {
          "internalType": "address",
          "name": "to",
          "type": "address"
        },
        {
          "internalType": "uint256",
          "name": "amount",
          "type": "uint256"
        }
      ],
      "name": "releasePublicSaleTokens",
      "outputs": [],
      "stateMutability": "nonpayable",
      "type": "function"
    },
    {
      "inputs": [
        {
          "internalType": "address",
          "name": "to",
          "type": "address"
        },
        {
          "internalType": "uint256",
          "name": "amount",
          "type": "uint256"
        }
      ],
      "name": "releaseReserveTokens",
      "outputs": [],
      "stateMutability": "nonpayable",
      "type": "function"
    },
    {
      "inputs": [
        {
          "internalType": "address",
          "name": "to",
          "type": "address"
        },
        {
          "internalType": "uint256",
          "name": "amount",
          "type": "uint256"
        }
      ],
      "name": "releaseTeamTokens",
      "outputs": [],
      "stateMutability": "nonpayable",
      "type": "function"
    },
    {
      "inputs": [
        {
          "internalType": "bytes32",
          "name": "role",
          "type": "bytes32"
        },
        {
          "internalType": "address",
          "name": "callerConfirmation",
          "type": "address"
        }
      ],
      "name": "renounceRole",
      "outputs": [],
      "stateMutability": "nonpayable",
      "type": "function"
    },
    {
      "inputs": [],
      "name": "reserveAllocation",
      "outputs": [
        {
          "internalType": "uint256",
          "name": "",
          "type": "uint256"
        }
      ],
      "stateMutability": "view",
      "type": "function"
    },
    {
      "inputs": [],
      "name": "reserveReleased",
      "outputs": [
        {
          "internalType": "uint256",
          "name": "",
          "type": "uint256"
        }
      ],
      "stateMutability": "view",
      "type": "function"
    },
    {
      "inputs": [
        {
          "internalType": "bytes32",
          "name": "role",
          "type": "bytes32"
        },
        {
          "internalType": "address",
          "name": "account",
          "type": "address"
        }
      ],
      "name": "revokeRole",
      "outputs": [],
      "stateMutability": "nonpayable",
      "type": "function"
    },
    {
      "inputs": [
        {
          "internalType": "uint256",
          "name": "amount",
          "type": "uint256"
        },
        {
          "internalType": "uint256",
          "name": "lockPeriod",
          "type": "uint256"
        }
      ],
      "name": "stake",
      "outputs": [],
      "stateMutability": "nonpayable",
      "type": "function"
    },
    {
      "inputs": [
        {
          "internalType": "address",
          "name": "",
          "type": "address"
        },
        {
          "internalType": "uint256",
          "name": "",
          "type": "uint256"
        }
      ],
      "name": "stakes",
      "outputs": [
        {
          "internalType": "uint256",
          "name": "amount",
          "type": "uint256"
        },
        {
          "internalType": "uint256",
          "name": "startTime",
          "type": "uint256"
        },
        {
          "internalType": "uint256",
          "name": "lockPeriod",
          "type": "uint256"
        },
        {
          "internalType": "uint256",
          "name": "rewardRate",
          "type": "uint256"
        }
      ],
      "stateMutability": "view",
      "type": "function"
    },
    {
      "inputs": [
        {
          "internalType": "bytes4",
          "name": "interfaceId",
          "type": "bytes4"
        }
      ],
      "name": "supportsInterface",
      "outputs": [
        {
          "internalType": "bool",
          "name": "",
          "type": "bool"
        }
      ],
      "stateMutability": "view",
      "type": "function"
    },
    {
      "inputs": [],
      "name": "symbol",
      "outputs": [
        {
          "internalType": "string",
          "name": "",
          "type": "string"
        }
      ],
      "stateMutability": "view",
      "type": "function"
    },
    {
      "inputs": [],
      "name": "teamAllocation",
      "outputs": [
        {
          "internalType": "uint256",
          "name": "",
          "type": "uint256"
        }
      ],
      "stateMutability": "view",
      "type": "function"
    },
    {
      "inputs": [],
      "name": "teamReleased",
      "outputs": [
        {
          "internalType": "uint256",
          "name": "",
          "type": "uint256"
        }
      ],
      "stateMutability": "view",
      "type": "function"
    },
    {
      "inputs": [],
      "name": "totalStaked",
      "outputs": [
        {
          "internalType": "uint256",
          "name": "",
          "type": "uint256"
        }
      ],
      "stateMutability": "view",
      "type": "function"
    },
    {
      "inputs": [],
      "name": "totalSupply",
      "outputs": [
        {
          "internalType": "uint256",
          "name": "",
          "type": "uint256"
        }
      ],
      "stateMutability": "view",
      "type": "function"
    },
    {
      "inputs": [
        {
          "internalType": "address",
          "name": "to",
          "type": "address"
        },
        {
          "internalType": "uint256",
          "name": "value",
          "type": "uint256"
        }
      ],
      "name": "transfer",
      "outputs": [
        {
          "internalType": "bool",
          "name": "",
          "type": "bool"
        }
      ],
      "stateMutability": "nonpayable",
      "type": "function"
    },
    {
      "inputs": [
        {
          "internalType": "address",
          "name": "from",
          "type": "address"
        },
        {
          "internalType": "address",
          "name": "to",
          "type": "address"
        },
        {
          "internalType": "uint256",
          "name": "value",
          "type": "uint256"
        }
      ],
      "name": "transferFrom",
      "outputs": [
        {
          "internalType": "bool",
          "name": "",
          "type": "bool"
        }
      ],
      "stateMutability": "nonpayable",
      "type": "function"
    },
    {
      "inputs": [],
      "name": "unpause",
      "outputs": [],
      "stateMutability": "nonpayable",
      "type": "function"
    },
    {
      "inputs": [
        {
          "internalType": "uint256",
          "name": "stakeIndex",
          "type": "uint256"
        }
      ],
      "name": "unstake",
      "outputs": [],
      "stateMutability": "nonpayable",
      "type": "function"
    },
    {
      "inputs": [],
      "name": "vestingStart",
      "outputs": [
        {
          "internalType": "uint256",
          "name": "",
          "type": "uint256"
        }
      ],
      "stateMutability": "view",
      "type": "function"
    }
  ],
  "bytecode": "0x60a06040526a7c13bc4b2c133c560000006008556af8277896582678ac0000006009556aa56fa5b99019a5c8000000600a556a7c13bc4b2c133c56000000600b556a52b7d2dcc80cd2e4000000600c553480156200005c57600080fd5b506040518060400160405280600b81526020016a20a2a3a4a9902a37b5b2b760a91b81525060405180604001604052806005815260200164414547495360d81b8152508160039081620000b091906200046c565b506004620000bf82826200046c565b5050600160075550620000d460003362000150565b50620001017f9f2df0fed2c77648de5860a4cc508cd0818c85b8b8a1ab4ceeef8d981c8956a63362000150565b506200012e7f65d7a28e3265b37a6474929f336521b332c1681b933f6cb9f3376673440d862a3362000150565b50426080526200014a336a52b7d2dcc80cd2e400000062000203565b6200055a565b60008281526006602090815260408083206001600160a01b038516845290915281205460ff16620001f95760008381526006602090815260408083206001600160a01b03861684529091529020805460ff19166001179055620001b03390565b6001600160a01b0316826001600160a01b0316847f2f8788117e7eff1d82e926ec794901d17c78024a50270940304540a733656f0d60405160405180910390a4506001620001fd565b5060005b92915050565b6001600160a01b038216620002335760405163ec442f0560e01b8152600060048201526024015b60405180910390fd5b620002416000838362000245565b5050565b6200025283838362000257565b505050565b620002616200026e565b6200025283838362000295565b60055460ff1615620002935760405163d93c066560e01b815260040160405180910390fd5b565b6001600160a01b038316620002c4578060026000828254620002b8919062000538565b90915550620003389050565b6001600160a01b03831660009081526020819052604090205481811015620003195760405163391434e360e21b81526001600160a01b038516600482015260248101829052604481018390526064016200022a565b6001600160a01b03841660009081526020819052604090209082900390555b6001600160a01b038216620003565760028054829003905562000375565b6001600160a01b03821660009081526020819052604090208054820190555b816001600160a01b0316836001600160a01b03167fddf252ad1be2c89b69c2b068fc378daa952ba7f163c4a11628f55a4df523b3ef83604051620003bb91815260200190565b60405180910390a3505050565b634e487b7160e01b600052604160045260246000fd5b600181811c90821680620003f357607f821691505b6020821081036200041457634e487b7160e01b600052602260045260246000fd5b50919050565b601f8211156200025257600081815260208120601f850160051c81016020861015620004435750805b601f850160051c820191505b8181101562000464578281556001016200044f565b505050505050565b81516001600160401b03811115620004885762000488620003c8565b620004a081620004998454620003de565b846200041a565b602080601f831160018114620004d85760008415620004bf5750858301515b600019600386901b1c1916600185901b17855562000464565b600085815260208120601f198616915b828110156200050957888601518255948401946001909101908401620004e8565b5085821015620005285787850151600019600388901b60f8161c191681555b5050505050600190811b01905550565b80820180821115620001fd57634e487b7160e01b600052601160045260246000fd5b608051611e996200057d60003960008181610385015261084b0152611e996000f3fe608060405234801561001057600080fd5b50600436106102d65760003560e01c806370a0823111610182578063beb8314c116100e9578063d547741f116100a2578063e99db8d81161007c578063e99db8d8146106a7578063f69296c0146106b0578063f6f0fa8d146106b9578063f8f079bb146106c257600080fd5b8063d547741f14610634578063dd62ed3e14610647578063e63ab1e91461068057600080fd5b8063beb8314c146105ca578063c0f496ac146105dd578063c23e7751146105e6578063c5d25dc2146105f9578063d3fc98641461060c578063d53913931461061f57600080fd5b806391d148541161013b57806391d148541461054e57806395d89b4114610561578063a1b140b614610569578063a217fddf146105a6578063a9059cbb146105ae578063abd653d7146105c157600080fd5b806370a08231146104ce57806379cc6790146104f75780637b0472f01461050a5780637ba6f4581461051d578063817b1cd21461053d5780638456cb591461054657600080fd5b8063313ce567116102415780634566b318116101fa578063584b62a1116101d4578063584b62a1146104745780635b5576b6146104a75780635c975abb146104ba5780636816521a146104c557600080fd5b80634566b3181461044d5780634b34e384146104565780634cfc4d301461046957600080fd5b8063313ce567146103f457806332cb6b0c1461040357806334ad1f321461041657806336568abe1461041f5780633f4ba83a1461043257806342966c681461043a57600080fd5b8063248a9ca311610293578063248a9ca31461035d578063254800d4146103805780632ceeed9a146103a75780632e17de78146103bc5780632f2ff15d146103cf5780632ff2e9dc146103e257600080fd5b806301ffc9a7146102db57806306fdde0314610303578063095ea7b3146103185780630a4efca41461032b57806318160ddd1461034257806323b872dd1461034a575b600080fd5b6102ee6102e9366004611a4a565b6106cb565b60405190151581526020015b60405180910390f35b61030b610702565b6040516102fa9190611ac1565b6102ee610326366004611af0565b610794565b610334600f5481565b6040519081526020016102fa565b600254610334565b6102ee610358366004611b1a565b6107ac565b61033461036b366004611b56565b60009081526006602052604090206001015490565b6103347f000000000000000000000000000000000000000000000000000000000000000081565b6103ba6103b5366004611af0565b6107d0565b005b6103ba6103ca366004611b56565b610906565b6103ba6103dd366004611b6f565b610bf2565b6103346a52b7d2dcc80cd2e400000081565b604051601281526020016102fa565b6103346b033b2e3c9fd0803ce800000081565b610334600a5481565b6103ba61042d366004611b6f565b610c17565b6103ba610c4f565b6103ba610448366004611b56565b610c81565b61033460105481565b6103ba610464366004611af0565b610c8b565b610334630784ce0081565b610487610482366004611af0565b610d24565b6040805194855260208501939093529183015260608201526080016102fa565b6103ba6104b5366004611af0565b610d6a565b60055460ff166102ee565b61033460085481565b6103346104dc366004611b9b565b6001600160a01b031660009081526020819052604090205490565b6103ba610505366004611af0565b610df3565b6103ba610518366004611bb6565b610e0c565b61053061052b366004611b9b565b611036565b6040516102fa9190611bd8565b61033460135481565b6103ba6110d3565b6102ee61055c366004611b6f565b611105565b61030b611130565b61057161113f565b604080519788526020880196909652948601939093526060850191909152608084015260a083015260c082015260e0016102fa565b610334600081565b6102ee6105bc366004611af0565b611184565b610334600b5481565b6103346105d8366004611af0565b611192565b61033460095481565b6103ba6105f4366004611af0565b6112a2565b6103ba610607366004611af0565b61132b565b6103ba61061a366004611c52565b6113a7565b610334600080516020611e4483398151915281565b6103ba610642366004611b6f565b611476565b610334610655366004611d1d565b6001600160a01b03918216600090815260016020908152604080832093909416825291909152205490565b6103347f65d7a28e3265b37a6474929f336521b332c1681b933f6cb9f3376673440d862a81565b61033460115481565b610334600e5481565b610334600d5481565b610334600c5481565b60006001600160e01b03198216637965db0b60e01b14806106fc57506301ffc9a760e01b6001600160e01b03198316145b92915050565b60606003805461071190611d47565b80601f016020809104026020016040519081016040528092919081815260200182805461073d90611d47565b801561078a5780601f1061075f5761010080835404028352916020019161078a565b820191906000526020600020905b81548152906001019060200180831161076d57829003601f168201915b5050505050905090565b6000336107a281858561149b565b5060019392505050565b6000336107ba8582856114a8565b6107c5858585611521565b506001949350505050565b60006107db81611580565b60085482600d546107ec9190611d97565b111561083f5760405162461bcd60e51b815260206004820152601760248201527f45786365656473207465616d20616c6c6f636174696f6e00000000000000000060448201526064015b60405180910390fd5b6000630784ce006108707f000000000000000000000000000000000000000000000000000000000000000042611daa565b60085461087d9190611dbd565b6108879190611dd4565b90508083600d546108989190611d97565b11156108de5760405162461bcd60e51b8152602060048201526015602482015274151bdad95b9cc81b9bdd081e595d081d995cdd1959605a1b6044820152606401610836565b82600d60008282546108f09190611d97565b909155506109009050848461158a565b50505050565b61090e6115c0565b3360009081526012602052604090205481106109625760405162461bcd60e51b8152602060048201526013602482015272092dcecc2d8d2c840e6e8c2d6ca40d2dcc8caf606b1b6044820152606401610836565b33600090815260126020526040812080548390811061098357610983611df6565b600091825260209182902060408051608081018252600490930290910180548352600181015493830184905260028101549183018290526003015460608301529092506109cf91611d97565b421015610a135760405162461bcd60e51b815260206004820152601260248201527114dd185ad9481cdd1a5b1b081b1bd8dad95960721b6044820152606401610836565b6000816020015142610a259190611daa565b9050600063bbf81e008284606001518560000151610a439190611dbd565b610a4d9190611dbd565b610a579190611dd4565b336000908152601260205260409020805491925090610a7890600190611daa565b81548110610a8857610a88611df6565b906000526020600020906004020160126000336001600160a01b03166001600160a01b031681526020019081526020016000208581548110610acc57610acc611df6565b60009182526020808320845460049093020191825560018085015490830155600280850154908301556003938401549390910192909255338152601290915260409020805480610b1e57610b1e611e0c565b6000828152602081206004600019909301928302018181556001810182905560028101829055600301819055915583516013805491929091610b61908490611daa565b90915550508251610b759030903390611521565b6b033b2e3c9fd0803ce800000081610b8c60025490565b610b969190611d97565b11610ba557610ba5338261158a565b8251604080519182526020820183905233917f6f2d3e000c89d37446b7c0374c0125068ff316d1e3ee302336478a8cd03c2336910160405180910390a2505050610bef6001600755565b50565b600082815260066020526040902060010154610c0d81611580565b61090083836115ea565b6001600160a01b0381163314610c405760405163334bd91960e11b815260040160405180910390fd5b610c4a828261167e565b505050565b7f65d7a28e3265b37a6474929f336521b332c1681b933f6cb9f3376673440d862a610c7981611580565b610bef6116eb565b610bef338261173d565b600080516020611e44833981519152610ca381611580565b600b5482601054610cb49190611d97565b1115610d025760405162461bcd60e51b815260206004820152601c60248201527f45786365656473206c697175696469747920616c6c6f636174696f6e000000006044820152606401610836565b8160106000828254610d149190611d97565b90915550610c4a9050838361158a565b60126020528160005260406000208181548110610d4057600080fd5b60009182526020909120600490910201805460018201546002830154600390930154919450925084565b600080516020611e44833981519152610d8281611580565b60095482600e54610d939190611d97565b1115610de15760405162461bcd60e51b815260206004820152601c60248201527f457863656564732065636f73797374656d20616c6c6f636174696f6e000000006044820152606401610836565b81600e6000828254610d149190611d97565b610dfe8233836114a8565b610e08828261173d565b5050565b610e146115c0565b610e1c611773565b60008211610e5d5760405162461bcd60e51b815260206004820152600e60248201526d043616e6e6f74207374616b6520360941b6044820152606401610836565b33600090815260208190526040902054821115610eb35760405162461bcd60e51b8152602060048201526014602482015273496e73756666696369656e742062616c616e636560601b6044820152606401610836565b8062278d001480610ec65750806276a700145b80610ed357508062ed4e00145b80610ee15750806301e13380145b610f235760405162461bcd60e51b8152602060048201526013602482015272125b9d985b1a59081b1bd8dac81c195c9a5bd9606a1b6044820152606401610836565b60008162278d0003610f3757506005610f6a565b816276a70003610f495750600a610f6a565b8162ed4e0003610f5b5750600f610f6a565b816301e1338003610f6a575060195b610f75333085611521565b3360009081526012602090815260408083208151608081018352878152428185019081529281018781526060820187815283546001818101865594885295872092516004909602909201948555925191840191909155905160028301555160039091015560138054859290610feb908490611d97565b9091555050604080518481526020810184905233917fdd2a19c3bdd089cbe77c04f5655f83de0504d6140d12c8667646f55d0557c4dc910160405180910390a250610e086001600755565b6001600160a01b0381166000908152601260209081526040808320805482518185028101850190935280835260609492939192909184015b828210156110c857838290600052602060002090600402016040518060800160405290816000820154815260200160018201548152602001600282015481526020016003820154815250508152602001906001019061106e565b505050509050919050565b7f65d7a28e3265b37a6474929f336521b332c1681b933f6cb9f3376673440d862a6110fd81611580565b610bef611799565b60009182526006602090815260408084206001600160a01b0393909316845291905290205460ff1690565b60606004805461071190611d47565b6000806000806000806000600d54600e54600f5460105460115461116260025490565b949c939b50919950975095509093506b033b2e3c9fd0803ce800000092509050565b6000336107a2818585611521565b6001600160a01b03821660009081526012602052604081205482106111ef5760405162461bcd60e51b8152602060048201526013602482015272092dcecc2d8d2c840e6e8c2d6ca40d2dcc8caf606b1b6044820152606401610836565b6001600160a01b038316600090815260126020526040812080548490811061121957611219611df6565b600091825260208083206040805160808101825260049094029091018054845260018101549284018390526002810154918401919091526003015460608301529092506112669042611daa565b9050600063bbf81e0082846060015185600001516112849190611dbd565b61128e9190611dbd565b6112989190611dd4565b9695505050505050565b600080516020611e448339815191526112ba81611580565b600a5482600f546112cb9190611d97565b11156113195760405162461bcd60e51b815260206004820152601e60248201527f45786365656473207075626c69632073616c6520616c6c6f636174696f6e00006044820152606401610836565b81600f6000828254610d149190611d97565b600061133681611580565b600c54826011546113479190611d97565b11156113955760405162461bcd60e51b815260206004820152601a60248201527f45786365656473207265736572766520616c6c6f636174696f6e0000000000006044820152606401610836565b8160116000828254610d149190611d97565b600080516020611e448339815191526113bf81611580565b6b033b2e3c9fd0803ce8000000836113d660025490565b6113e09190611d97565b11156114235760405162461bcd60e51b815260206004820152601260248201527145786365656473206d617820737570706c7960701b6044820152606401610836565b61142d848461158a565b836001600160a01b03167f9d89e36eadf856db0ad9ffb5a569e07f95634dddd9501141ecf04820484ad0dc8484604051611468929190611e22565b60405180910390a250505050565b60008281526006602052604090206001015461149181611580565b610900838361167e565b610c4a83838360016117d6565b6001600160a01b03838116600090815260016020908152604080832093861683529290522054600019811015610900578181101561151257604051637dc7a0d960e11b81526001600160a01b03841660048201526024810182905260448101839052606401610836565b610900848484840360006117d6565b6001600160a01b03831661154b57604051634b637e8f60e11b815260006004820152602401610836565b6001600160a01b0382166115755760405163ec442f0560e01b815260006004820152602401610836565b610c4a8383836118ab565b610bef81336118b6565b6001600160a01b0382166115b45760405163ec442f0560e01b815260006004820152602401610836565b610e08600083836118ab565b6002600754036115e357604051633ee5aeb560e01b815260040160405180910390fd5b6002600755565b60006115f68383611105565b6116765760008381526006602090815260408083206001600160a01b03861684529091529020805460ff1916600117905561162e3390565b6001600160a01b0316826001600160a01b0316847f2f8788117e7eff1d82e926ec794901d17c78024a50270940304540a733656f0d60405160405180910390a45060016106fc565b5060006106fc565b600061168a8383611105565b156116765760008381526006602090815260408083206001600160a01b0386168085529252808320805460ff1916905551339286917ff6391f5c32d9c69d2a47ea670b442974b53935d1edc7fd64eb21e047a839171b9190a45060016106fc565b6116f36118ef565b6005805460ff191690557f5db9ee0a495bf2e6ff9c91a7834c1ba4fdd244a5e8aa4e537bd38aeae4b073aa335b6040516001600160a01b03909116815260200160405180910390a1565b6001600160a01b03821661176757604051634b637e8f60e11b815260006004820152602401610836565b610e08826000836118ab565b60055460ff16156117975760405163d93c066560e01b815260040160405180910390fd5b565b6117a1611773565b6005805460ff191660011790557f62e78cea01bee320cd4e420270b5ea74000d11b0c9f74754ebdbfc544b05a2586117203390565b6001600160a01b0384166118005760405163e602df0560e01b815260006004820152602401610836565b6001600160a01b03831661182a57604051634a1406b160e11b815260006004820152602401610836565b6001600160a01b038085166000908152600160209081526040808320938716835292905220829055801561090057826001600160a01b0316846001600160a01b03167f8c5be1e5ebec7d5bd14f71427d1e84f3dd0314c0f7b2291e5b200ac8c7c3b9258460405161189d91815260200190565b60405180910390a350505050565b610c4a838383611912565b6118c08282611105565b610e085760405163e2517d3f60e01b81526001600160a01b038216600482015260248101839052604401610836565b60055460ff1661179757604051638dfc202b60e01b815260040160405180910390fd5b61191a611773565b610c4a8383836001600160a01b03831661194b5780600260008282546119409190611d97565b909155506119bd9050565b6001600160a01b0383166000908152602081905260409020548181101561199e5760405163391434e360e21b81526001600160a01b03851660048201526024810182905260448101839052606401610836565b6001600160a01b03841660009081526020819052604090209082900390555b6001600160a01b0382166119d9576002805482900390556119f8565b6001600160a01b03821660009081526020819052604090208054820190555b816001600160a01b0316836001600160a01b03167fddf252ad1be2c89b69c2b068fc378daa952ba7f163c4a11628f55a4df523b3ef83604051611a3d91815260200190565b60405180910390a3505050565b600060208284031215611a5c57600080fd5b81356001600160e01b031981168114611a7457600080fd5b9392505050565b6000815180845260005b81811015611aa157602081850181015186830182015201611a85565b506000602082860101526020601f19601f83011685010191505092915050565b602081526000611a746020830184611a7b565b80356001600160a01b0381168114611aeb57600080fd5b919050565b60008060408385031215611b0357600080fd5b611b0c83611ad4565b946020939093013593505050565b600080600060608486031215611b2f57600080fd5b611b3884611ad4565b9250611b4660208501611ad4565b9150604084013590509250925092565b600060208284031215611b6857600080fd5b5035919050565b60008060408385031215611b8257600080fd5b82359150611b9260208401611ad4565b90509250929050565b600060208284031215611bad57600080fd5b611a7482611ad4565b60008060408385031215611bc957600080fd5b50508035926020909101359150565b602080825282518282018190526000919060409081850190868401855b82811015611c2f57815180518552868101518786015285810151868601526060908101519085015260809093019290850190600101611bf5565b5091979650505050505050565b634e487b7160e01b600052604160045260246000fd5b600080600060608486031215611c6757600080fd5b611c7084611ad4565b925060208401359150604084013567ffffffffffffffff80821115611c9457600080fd5b818601915086601f830112611ca857600080fd5b813581811115611cba57611cba611c3c565b604051601f8201601f19908116603f01168101908382118183101715611ce257611ce2611c3c565b81604052828152896020848701011115611cfb57600080fd5b8260208601602083013760006020848301015280955050505050509250925092565b60008060408385031215611d3057600080fd5b611d3983611ad4565b9150611b9260208401611ad4565b600181811c90821680611d5b57607f821691505b602082108103611d7b57634e487b7160e01b600052602260045260246000fd5b50919050565b634e487b7160e01b600052601160045260246000fd5b808201808211156106fc576106fc611d81565b818103818111156106fc576106fc611d81565b80820281158282048414176106fc576106fc611d81565b600082611df157634e487b7160e01b600052601260045260246000fd5b500490565b634e487b7160e01b600052603260045260246000fd5b634e487b7160e01b600052603160045260246000fd5b828152604060208201526000611e3b6040830184611a7b565b94935050505056fe9f2df0fed2c77648de5860a4cc508cd0818c85b8b8a1ab4ceeef8d981c8956a6a26469706673582212205841fc7bf122f0d83fde65159e72ce47e4aebad50f147f006c098a6023a5e6af64736f6c63430008140033",
  "linkReferences": {},
  "deployedLinkReferences": {}
}