{
  "_format": "hh-sol-artifact-1",
  "contractName": "AIDecisionLogger",
  "sourceName": "contracts/AIDecisionLogger.sol",
  "abi": [
    {
      "inputs": [],
      "stateMutability": "nonpayable",
      "type": "constructor"
    },
    {
      "inputs": [],
      "name": "AccessControlBadConfirmation",
      "type": "error"
    },
    {
      "inputs": [
        {
          "internalType": "address",
          "name": "account",
          "type": "address"
        },
        {
          "internalType": "bytes32",
          "name": "neededRole",
          "type": "bytes32"
        }
      ],
      "name": "AccessControlUnauthorizedAccount",
      "type": "error"
    },
    {
      "inputs": [],
      "name": "EnforcedPause",
      "type": "error"
    },
    {
      "inputs": [],
      "name": "ExpectedPause",
      "type": "error"
    },
    {
      "inputs": [],
      "name": "ReentrancyGuardReentrantCall",
      "type": "error"
    },
    {
      "anonymous": false,
      "inputs": [
        {
          "indexed": true,
          "internalType": "address",
          "name": "memberAddress",
          "type": "address"
        },
        {
          "indexed": false,
          "internalType": "string",
          "name": "platformName",
          "type": "string"
        },
        {
          "indexed": false,
          "internalType": "uint256",
          "name": "timestamp",
          "type": "uint256"
        }
      ],
      "name": "CouncilMemberAdded",
      "type": "event"
    },
    {
      "anonymous": false,
      "inputs": [
        {
          "indexed": true,
          "internalType": "address",
          "name": "memberAddress",
          "type": "address"
        },
        {
          "indexed": false,
          "internalType": "uint256",
          "name": "timestamp",
          "type": "uint256"
        }
      ],
      "name": "CouncilMemberRemoved",
      "type": "event"
    },
    {
      "anonymous": false,
      "inputs": [
        {
          "indexed": true,
          "internalType": "bytes32",
          "name": "decisionHash",
          "type": "bytes32"
        },
        {
          "indexed": false,
          "internalType": "enum AIDecisionLogger.DecisionStatus",
          "name": "finalStatus",
          "type": "uint8"
        },
        {
          "indexed": false,
          "internalType": "uint256",
          "name": "timestamp",
          "type": "uint256"
        }
      ],
      "name": "DecisionFinalized",
      "type": "event"
    },
    {
      "anonymous": false,
      "inputs": [
        {
          "indexed": true,
          "internalType": "bytes32",
          "name": "decisionHash",
          "type": "bytes32"
        },
        {
          "indexed": true,
          "internalType": "address",
          "name": "platform",
          "type": "address"
        },
        {
          "indexed": false,
          "internalType": "uint256",
          "name": "timestamp",
          "type": "uint256"
        },
        {
          "indexed": false,
          "internalType": "bool",
          "name": "isRobotDecision",
          "type": "bool"
        }
      ],
      "name": "DecisionLogged",
      "type": "event"
    },
    {
      "anonymous": false,
      "inputs": [
        {
          "indexed": true,
          "internalType": "bytes32",
          "name": "decisionHash",
          "type": "bytes32"
        },
        {
          "indexed": true,
          "internalType": "address",
          "name": "councilMember",
          "type": "address"
        },
        {
          "indexed": false,
          "internalType": "bool",
          "name": "approved",
          "type": "bool"
        },
        {
          "indexed": false,
          "internalType": "uint8",
          "name": "currentApprovals",
          "type": "uint8"
        },
        {
          "indexed": false,
          "internalType": "uint8",
          "name": "currentRejections",
          "type": "uint8"
        }
      ],
      "name": "DecisionVoted",
      "type": "event"
    },
    {
      "anonymous": false,
      "inputs": [
        {
          "indexed": false,
          "internalType": "address",
          "name": "account",
          "type": "address"
        }
      ],
      "name": "Paused",
      "type": "event"
    },
    {
      "anonymous": false,
      "inputs": [
        {
          "indexed": true,
          "internalType": "bytes32",
          "name": "role",
          "type": "bytes32"
        },
        {
          "indexed": true,
          "internalType": "bytes32",
          "name": "previousAdminRole",
          "type": "bytes32"
        },
        {
          "indexed": true,
          "internalType": "bytes32",
          "name": "newAdminRole",
          "type": "bytes32"
        }
      ],
      "name": "RoleAdminChanged",
      "type": "event"
    },
    {
      "anonymous": false,
      "inputs": [
        {
          "indexed": true,
          "internalType": "bytes32",
          "name": "role",
          "type": "bytes32"
        },
        {
          "indexed": true,
          "internalType": "address",
          "name": "account",
          "type": "address"
        },
        {
          "indexed": true,
          "internalType": "address",
          "name": "sender",
          "type": "address"
        }
      ],
      "name": "RoleGranted",
      "type": "event"
    },
    {
      "anonymous": false,
      "inputs": [
        {
          "indexed": true,
          "internalType": "bytes32",
          "name": "role",
          "type": "bytes32"
        },
        {
          "indexed": true,
          "internalType": "address",
          "name": "account",
          "type": "address"
        },
        {
          "indexed": true,
          "internalType": "address",
          "name": "sender",
          "type": "address"
        }
      ],
      "name": "RoleRevoked",
      "type": "event"
    },
    {
      "anonymous": false,
      "inputs": [
        {
          "indexed": false,
          "internalType": "address",
          "name": "account",
          "type": "address"
        }
      ],
      "name": "Unpaused",
      "type": "event"
    },
    {
      "inputs": [],
      "name": "AUDITOR_ROLE",
      "outputs": [
        {
          "internalType": "bytes32",
          "name": "",
          "type": "bytes32"
        }
      ],
      "stateMutability": "view",
      "type": "function"
    },
    {
      "inputs": [],
      "name": "DEFAULT_ADMIN_ROLE",
      "outputs": [
        {
          "internalType": "bytes32",
          "name": "",
          "type": "bytes32"
        }
      ],
      "stateMutability": "view",
      "type": "function"
    },
    {
      "inputs": [],
      "name": "LOGGER_ROLE",
      "outputs": [
        {
          "internalType": "bytes32",
          "name": "",
          "type": "bytes32"
        }
      ],
      "stateMutability": "view",
      "type": "function"
    },
    {
      "inputs": [
        {
          "internalType": "address",
          "name": "_memberAddress",
          "type": "address"
        },
        {
          "internalType": "string",
          "name": "_platformName",
          "type": "string"
        }
      ],
      "name": "addCouncilMember",
      "outputs": [],
      "stateMutability": "nonpayable",
      "type": "function"
    },
    {
      "inputs": [
        {
          "internalType": "uint256",
          "name": "",
          "type": "uint256"
        }
      ],
      "name": "councilAddresses",
      "outputs": [
        {
          "internalType": "address",
          "name": "",
          "type": "address"
        }
      ],
      "stateMutability": "view",
      "type": "function"
    },
    {
      "inputs": [
        {
          "internalType": "address",
          "name": "",
          "type": "address"
        }
      ],
      "name": "councilMembers",
      "outputs": [
        {
          "internalType": "address",
          "name": "memberAddress",
          "type": "address"
        },
        {
          "internalType": "string",
          "name": "platformName",
          "type": "string"
        },
        {
          "internalType": "bool",
          "name": "isActive",
          "type": "bool"
        },
        {
          "internalType": "uint256",
          "name": "totalVotes",
          "type": "uint256"
        },
        {
          "internalType": "uint256",
          "name": "joinedAt",
          "type": "uint256"
        }
      ],
      "stateMutability": "view",
      "type": "function"
    },
    {
      "inputs": [
        {
          "internalType": "uint256",
          "name": "",
          "type": "uint256"
        }
      ],
      "name": "decisionHistory",
      "outputs": [
        {
          "internalType": "bytes32",
          "name": "",
          "type": "bytes32"
        }
      ],
      "stateMutability": "view",
      "type": "function"
    },
    {
      "inputs": [
        {
          "internalType": "bytes32",
          "name": "",
          "type": "bytes32"
        }
      ],
      "name": "decisions",
      "outputs": [
        {
          "internalType": "bytes32",
          "name": "decisionHash",
          "type": "bytes32"
        },
        {
          "internalType": "address",
          "name": "platform",
          "type": "address"
        },
        {
          "internalType": "uint256",
          "name": "timestamp",
          "type": "uint256"
        },
        {
          "internalType": "enum AIDecisionLogger.DecisionStatus",
          "name": "status",
          "type": "uint8"
        },
        {
          "internalType": "uint8",
          "name": "approvalCount",
          "type": "uint8"
        },
        {
          "internalType": "uint8",
          "name": "rejectionCount",
          "type": "uint8"
        },
        {
          "internalType": "string",
          "name": "ipfsHash",
          "type": "string"
        },
        {
          "internalType": "bool",
          "name": "isRobotDecision",
          "type": "bool"
        },
        {
          "internalType": "bytes32",
          "name": "parentDecisionHash",
          "type": "bytes32"
        }
      ],
      "stateMutability": "view",
      "type": "function"
    },
    {
      "inputs": [],
      "name": "getActiveCouncilMembers",
      "outputs": [
        {
          "internalType": "address[]",
          "name": "",
          "type": "address[]"
        }
      ],
      "stateMutability": "view",
      "type": "function"
    },
    {
      "inputs": [
        {
          "internalType": "bytes32",
          "name": "_decisionHash",
          "type": "bytes32"
        }
      ],
      "name": "getDecision",
      "outputs": [
        {
          "internalType": "address",
          "name": "platform",
          "type": "address"
        },
        {
          "internalType": "uint256",
          "name": "timestamp",
          "type": "uint256"
        },
        {
          "internalType": "enum AIDecisionLogger.DecisionStatus",
          "name": "status",
          "type": "uint8"
        },
        {
          "internalType": "uint8",
          "name": "approvalCount",
          "type": "uint8"
        },
        {
          "internalType": "uint8",
          "name": "rejectionCount",
          "type": "uint8"
        },
        {
          "internalType": "string",
          "name": "ipfsHash",
          "type": "string"
        },
        {
          "internalType": "bool",
          "name": "isRobotDecision",
          "type": "bool"
        }
      ],
      "stateMutability": "view",
      "type": "function"
    },
    {
      "inputs": [
        {
          "internalType": "uint256",
          "name": "_count",
          "type": "uint256"
        }
      ],
      "name": "getRecentDecisions",
      "outputs": [
        {
          "internalType": "bytes32[]",
          "name": "",
          "type": "bytes32[]"
        }
      ],
      "stateMutability": "view",
      "type": "function"
    },
    {
      "inputs": [
        {
          "internalType": "bytes32",
          "name": "role",
          "type": "bytes32"
        }
      ],
      "name": "getRoleAdmin",
      "outputs": [
        {
          "internalType": "bytes32",
          "name": "",
          "type": "bytes32"
        }
      ],
      "stateMutability": "view",
      "type": "function"
    },
    {
      "inputs": [],
      "name": "getStatistics",
      "outputs": [
        {
          "internalType": "uint256",
          "name": "_totalDecisions",
          "type": "uint256"
        },
        {
          "internalType": "uint256",
          "name": "_totalApproved",
          "type": "uint256"
        },
        {
          "internalType": "uint256",
          "name": "_totalRejected",
          "type": "uint256"
        },
        {
          "internalType": "uint256",
          "name": "_totalRobotDecisions",
          "type": "uint256"
        },
        {
          "internalType": "uint256",
          "name": "_pendingDecisions",
          "type": "uint256"
        }
      ],
      "stateMutability": "view",
      "type": "function"
    },
    {
      "inputs": [
        {
          "internalType": "bytes32",
          "name": "role",
          "type": "bytes32"
        },
        {
          "internalType": "address",
          "name": "account",
          "type": "address"
        }
      ],
      "name": "grantRole",
      "outputs": [],
      "stateMutability": "nonpayable",
      "type": "function"
    },
    {
      "inputs": [
        {
          "internalType": "bytes32",
          "name": "role",
          "type": "bytes32"
        },
        {
          "internalType": "address",
          "name": "account",
          "type": "address"
        }
      ],
      "name": "hasRole",
      "outputs": [
        {
          "internalType": "bool",
          "name": "",
          "type": "bool"
        }
      ],
      "stateMutability": "view",
      "type": "function"
    },
    {
      "inputs": [
        {
          "internalType": "bytes32",
          "name": "",
          "type": "bytes32"
        },
        {
          "internalType": "address",
          "name": "",
          "type": "address"
        }
      ],
      "name": "hasVoted",
      "outputs": [
        {
          "internalType": "bool",
          "name": "",
          "type": "bool"
        }
      ],
      "stateMutability": "view",
      "type": "function"
    },
    {
      "inputs": [
        {
          "internalType": "bytes32",
          "name": "_decisionHash",
          "type": "bytes32"
        },
        {
          "internalType": "string",
          "name": "_ipfsHash",
          "type": "string"
        },
        {
          "internalType": "bool",
          "name": "_isRobotDecision",
          "type": "bool"
        },
        {
          "internalType": "bytes32",
          "name": "_parentDecisionHash",
          "type": "bytes32"
        }
      ],
      "name": "logDecision",
      "outputs": [],
      "stateMutability": "nonpayable",
      "type": "function"
    },
    {
      "inputs": [],
      "name": "pause",
      "outputs": [],
      "stateMutability": "nonpayable",
      "type": "function"
    },
    {
      "inputs": [],
      "name": "paused",
      "outputs": [
        {
          "internalType": "bool",
          "name": "",
          "type": "bool"
        }
      ],
      "stateMutability": "view",
      "type": "function"
    },
    {
      "inputs": [
        {
          "internalType": "address",
          "name": "_memberAddress",
          "type": "address"
        }
      ],
      "name": "removeCouncilMember",
      "outputs": [],
      "stateMutability": "nonpayable",
      "type": "function"
    },
    {
      "inputs": [
        {
          "internalType": "bytes32",
          "name": "role",
          "type": "bytes32"
        },
        {
          "internalType": "address",
          "name": "callerConfirmation",
          "type": "address"
        }
      ],
      "name": "renounceRole",
      "outputs": [],
      "stateMutability": "nonpayable",
      "type": "function"
    },
    {
      "inputs": [],
      "name": "requiredApprovals",
      "outputs": [
        {
          "internalType": "uint8",
          "name": "",
          "type": "uint8"
        }
      ],
      "stateMutability": "view",
      "type": "function"
    },
    {
      "inputs": [
        {
          "internalType": "bytes32",
          "name": "role",
          "type": "bytes32"
        },
        {
          "internalType": "address",
          "name": "account",
          "type": "address"
        }
      ],
      "name": "revokeRole",
      "outputs": [],
      "stateMutability": "nonpayable",
      "type": "function"
    },
    {
      "inputs": [
        {
          "internalType": "bytes4",
          "name": "interfaceId",
          "type": "bytes4"
        }
      ],
      "name": "supportsInterface",
      "outputs": [
        {
          "internalType": "bool",
          "name": "",
          "type": "bool"
        }
      ],
      "stateMutability": "view",
      "type": "function"
    },
    {
      "inputs": [],
      "name": "totalApproved",
      "outputs": [
        {
          "internalType": "uint256",
          "name": "",
          "type": "uint256"
        }
      ],
      "stateMutability": "view",
      "type": "function"
    },
    {
      "inputs": [],
      "name": "totalCouncilMembers",
      "outputs": [
        {
          "internalType": "uint8",
          "name": "",
          "type": "uint8"
        }
      ],
      "stateMutability": "view",
      "type": "function"
    },
    {
      "inputs": [],
      "name": "totalDecisions",
      "outputs": [
        {
          "internalType": "uint256",
          "name": "",
          "type": "uint256"
        }
      ],
      "stateMutability": "view",
      "type": "function"
    },
    {
      "inputs": [],
      "name": "totalRejected",
      "outputs": [
        {
          "internalType": "uint256",
          "name": "",
          "type": "uint256"
        }
      ],
      "stateMutability": "view",
      "type": "function"
    },
    {
      "inputs": [],
      "name": "totalRobotDecisions",
      "outputs": [
        {
          "internalType": "uint256",
          "name": "",
          "type": "uint256"
        }
      ],
      "stateMutability": "view",
      "type": "function"
    },
    {
      "inputs": [],
      "name": "unpause",
      "outputs": [],
      "stateMutability": "nonpayable",
      "type": "function"
    },
    {
      "inputs": [
        {
          "internalType": "bytes32",
          "name": "_decisionHash",
          "type": "bytes32"
        },
        {
          "internalType": "enum AIDecisionLogger.DecisionStatus",
          "name": "_status",
          "type": "uint8"
        }
      ],
      "name": "updateDecisionStatus",
      "outputs": [],
      "stateMutability": "nonpayable",
      "type": "function"
    },
    {
      "inputs": [
        {
          "internalType": "bytes32",
          "name": "_decisionHash",
          "type": "bytes32"
        },
        {
          "internalType": "bool",
          "name": "_approve",
          "type": "bool"
        }
      ],
      "name": "voteOnDecision",
      "outputs": [],
      "stateMutability": "nonpayable",
      "type": "function"
    }
  ],
  "bytecode": "0x60806040526008805461ffff19166106051790553480156200002057600080fd5b50600180556200003260003362000093565b506200005f7f566c814873eed56a69b28c40ab27cc2cb150d74068bae3e884ccd44f8de60f8a3362000093565b506200008c7f59a1c48e5837ad7a7f3dcedcbe129bf3249ec4fbf651fd4f5e2600ead39fe2f53362000093565b5062000142565b6000828152602081815260408083206001600160a01b038516845290915281205460ff1662000138576000838152602081815260408083206001600160a01b03861684529091529020805460ff19166001179055620000ef3390565b6001600160a01b0316826001600160a01b0316847f2f8788117e7eff1d82e926ec794901d17c78024a50270940304540a733656f0d60405160405180910390a45060016200013c565b5060005b92915050565b61202380620001526000396000f3fe608060405234801561001057600080fd5b50600436106101f05760003560e01c80636fe4e0ad1161010f578063a217fddf116100a2578063cba09cc811610071578063cba09cc81461049d578063d547741f146104a6578063d8c57892146104b9578063f4633064146104df57600080fd5b8063a217fddf14610429578063a985e29914610431578063aadc3b7214610444578063aeba4f8e1461047257600080fd5b806399c1aadc116100de57806399c1aadc146103ed5780639caee262146103fa578063a11d8ff21461040d578063a2104acd1461041657600080fd5b80636fe4e0ad146103995780637bf0fbde146103bd5780638456cb59146103d257806391d14854146103da57600080fd5b80632aa3131a116101875780633f4ba83a116101565780633f4ba83a1461034c5780635720439d146103545780635c975abb146103675780636e1d616e1461037257600080fd5b80632aa3131a146102d05780632f2ff15d146102f457806336568abe14610309578063372d6b271461031c57600080fd5b8063183c05f6116101c3578063183c05f61461025d5780631afd614a14610272578063248a9ca31461029a578063276c3467146102bd57600080fd5b806301ffc9a7146101f5578063072e18401461021d5780630c96a61a1461023457806313ce35621461023d575b600080fd5b610208610203366004611962565b6104f2565b60405190151581526020015b60405180910390f35b610226600b5481565b604051908152602001610214565b61022660095481565b61025061024b366004611993565b610529565b60405161021491906119ac565b6102656105ff565b60405161021491906119f0565b610285610280366004611993565b610797565b60405161021499989796959493929190611aaf565b6102266102a8366004611993565b60009081526020819052604090206001015490565b6102266102cb366004611993565b610884565b6102e36102de366004611b34565b6108a5565b604051610214959493929190611b4f565b610307610302366004611b90565b61096c565b005b610307610317366004611b90565b610997565b6103246109cf565b604080519586526020860194909452928401919091526060830152608082015260a001610214565b610307610a13565b610307610362366004611b34565b610a29565b60025460ff16610208565b6102267f59a1c48e5837ad7a7f3dcedcbe129bf3249ec4fbf651fd4f5e2600ead39fe2f581565b6008546103ab90610100900460ff1681565b60405160ff9091168152602001610214565b610226600080516020611fce83398151915281565b610307610b1b565b6102086103e8366004611b90565b610b2e565b6008546103ab9060ff1681565b610307610408366004611bbc565b610b57565b610226600c5481565b610307610424366004611ca3565b610ccd565b610226600081565b61030761043f366004611d02565b610f6c565b610208610452366004611b90565b600560209081526000928352604080842090915290825290205460ff1681565b610485610480366004611993565b61115e565b6040516001600160a01b039091168152602001610214565b610226600a5481565b6103076104b4366004611b90565b611188565b6104cc6104c7366004611993565b6111ad565b6040516102149796959493929190611d50565b6103076104ed366004611dae565b611339565b60006001600160e01b03198216637965db0b60e01b148061052357506301ffc9a760e01b6001600160e01b03198316145b92915050565b600654606090600081841161053e5783610540565b815b905060008167ffffffffffffffff81111561055d5761055d611bf0565b604051908082528060200260200182016040528015610586578160200160208202803683370190505b50905060005b828110156105f6576006816105a2600187611de7565b6105ac9190611de7565b815481106105bc576105bc611dfa565b90600052602060002001548282815181106105d9576105d9611dfa565b6020908102919091010152806105ee81611e10565b91505061058c565b50949350505050565b60606000805b60075481101561067657600460006007838154811061062657610626611dfa565b60009182526020808320909101546001600160a01b0316835282019290925260400190206002015460ff1615610664578161066081611e10565b9250505b8061066e81611e10565b915050610605565b5060008167ffffffffffffffff81111561069257610692611bf0565b6040519080825280602002602001820160405280156106bb578160200160208202803683370190505b5090506000805b60075481101561078e5760046000600783815481106106e3576106e3611dfa565b60009182526020808320909101546001600160a01b0316835282019290925260400190206002015460ff161561077c576007818154811061072657610726611dfa565b9060005260206000200160009054906101000a90046001600160a01b031683838151811061075657610756611dfa565b6001600160a01b03909216602092830291909101909101528161077881611e10565b9250505b8061078681611e10565b9150506106c2565b50909392505050565b60036020819052600091825260409091208054600182015460028301549383015460048401805493956001600160a01b0390931694929360ff8084169461010085048216946201000090049091169290916107f190611e29565b80601f016020809104026020016040519081016040528092919081815260200182805461081d90611e29565b801561086a5780601f1061083f5761010080835404028352916020019161086a565b820191906000526020600020905b81548152906001019060200180831161084d57829003601f168201915b505050506005830154600690930154919260ff1691905089565b6006818154811061089457600080fd5b600091825260209091200154905081565b600460205260009081526040902080546001820180546001600160a01b0390921692916108d190611e29565b80601f01602080910402602001604051908101604052809291908181526020018280546108fd90611e29565b801561094a5780601f1061091f5761010080835404028352916020019161094a565b820191906000526020600020905b81548152906001019060200180831161092d57829003601f168201915b5050505060028301546003840154600490940154929360ff9091169290915085565b60008281526020819052604090206001015461098781611634565b610991838361163e565b50505050565b6001600160a01b03811633146109c05760405163334bd91960e11b815260040160405180910390fd5b6109ca82826116d0565b505050565b600080600080600080600b54600a546009546109eb9190611de7565b6109f59190611de7565b600954600a54600b54600c54929a9199509750909550909350915050565b6000610a1e81611634565b610a2661173b565b50565b6000610a3481611634565b6001600160a01b03821660009081526004602052604090206002015460ff16610a985760405162461bcd60e51b81526020600482015260116024820152704d656d626572206e6f742061637469766560781b60448201526064015b60405180910390fd5b6001600160a01b0382166000908152600460205260409020600201805460ff19169055610ad3600080516020611fce833981519152836116d0565b50816001600160a01b03167f208c29b08f363039c7c656b8f572656a2489f862113410d36201aa340657f1b442604051610b0f91815260200190565b60405180910390a25050565b6000610b2681611634565b610a2661178d565b6000918252602082815260408084206001600160a01b0393909316845291905290205460ff1690565b600080516020611fce833981519152610b6f81611634565b610b776117ca565b6004826005811115610b8b57610b8b611a31565b1480610ba857506005826005811115610ba657610ba6611a31565b145b610bec5760405162461bcd60e51b8152602060048201526015602482015274496e76616c6964207374617475732075706461746560581b6044820152606401610a8f565b60016000848152600360208190526040909120015460ff166005811115610c1557610c15611a31565b14610c5a5760405162461bcd60e51b8152602060048201526015602482015274111958da5cda5bdb881b9bdd08185c1c1c9bdd9959605a1b6044820152606401610a8f565b600083815260036020819052604090912001805483919060ff19166001836005811115610c8957610c89611a31565b0217905550827ff2dcd764b43abebec4b0bb3f52331b94f6326632b24219137cd03b3d06843e4e8342604051610cc0929190611e63565b60405180910390a2505050565b600080516020611fce833981519152610ce581611634565b610ced6117ca565b610cf56117f0565b84610d3a5760405162461bcd60e51b8152602060048201526015602482015274092dcecc2d8d2c840c8cac6d2e6d2dedc40d0c2e6d605b1b6044820152606401610a8f565b60008581526003602052604090206002015415610d995760405162461bcd60e51b815260206004820152601760248201527f4465636973696f6e20616c7265616479206c6f676765640000000000000000006044820152606401610a8f565b6040805161012081018252868152336020808301918252428385019081526000606085018181526080860182905260a0860182905260c086018b905289151560e087015261010086018990528b8252600393849052959020845181559251600180850180546001600160a01b0319166001600160a01b03909316929092179091559051600284015593519082018054939492939192909160ff191690836005811115610e4757610e47611a31565b0217905550608082015160038201805460a085015160ff908116620100000262ff00001991909416610100021662ffff00199091161791909117905560c08201516004820190610e979082611ecc565b5060e082015160058201805460ff191691151591909117905561010090910151600691820155805460018101825560009182527ff652222313e28459528d920b65115c16c04f3efc82aaedc97be59f3f377c0d3f018690556009805491610efd83611e10565b91905055508215610f1e57600c8054906000610f1883611e10565b91905055505b604080514281528415156020820152339187917fa8682ee2426a43d13db963d027b1bd1933326c6db04adcf19831a7d42ace82af910160405180910390a3610f6560018055565b5050505050565b6000610f7781611634565b6001600160a01b038316610fbf5760405162461bcd60e51b815260206004820152600f60248201526e496e76616c6964206164647265737360881b6044820152606401610a8f565b6001600160a01b03831660009081526004602052604090206002015460ff16156110235760405162461bcd60e51b81526020600482015260156024820152744d656d62657220616c72656164792065786973747360581b6044820152606401610a8f565b6040805160a0810182526001600160a01b0385811680835260208084018781526001858701819052600060608701819052426080880152938452600490925294909120835181546001600160a01b0319169316929092178255925191929091908201906110909082611ecc565b50604082015160028201805460ff191691151591909117905560608201516003820155608090910151600490910155600780546001810182556000919091527fa66cc928b5edb82af9bd49922954155ab7b0942694bea4ce44661d9a8736c6880180546001600160a01b0319166001600160a01b038516179055611122600080516020611fce8339815191528461163e565b50826001600160a01b03167f7d65aa63b4d9927ff7656c344b5c43b1e9dae12096e9d4761748398fe0b30e358342604051610cc0929190611f8c565b6007818154811061116e57600080fd5b6000918252602090912001546001600160a01b0316905081565b6000828152602081905260409020600101546111a381611634565b61099183836116d0565b60008181526003602081815260408084208151610120810183528154815260018201546001600160a01b03169381019390935260028101549183019190915291820154839283928392839260609284928392908286019060ff16600581111561121857611218611a31565b600581111561122957611229611a31565b8152600382015460ff6101008204811660208401526201000090910416604082015260048201805460609092019161126090611e29565b80601f016020809104026020016040519081016040528092919081815260200182805461128c90611e29565b80156112d95780601f106112ae576101008083540402835291602001916112d9565b820191906000526020600020905b8154815290600101906020018083116112bc57829003601f168201915b5050509183525050600582015460ff16151560208083019190915260069092015460409182015290820151908201516060830151608084015160a085015160c086015160e090960151949f939e50919c509a509850919650945092505050565b6113416117ca565b6113496117f0565b3360009081526004602052604090206002015460ff166113ab5760405162461bcd60e51b815260206004820152601c60248201527f4e6f7420616e2061637469766520636f756e63696c206d656d626572000000006044820152606401610a8f565b600082815260036020526040812060020154900361140b5760405162461bcd60e51b815260206004820152601760248201527f4465636973696f6e20646f6573206e6f742065786973740000000000000000006044820152606401610a8f565b600082815260056020908152604080832033845290915290205460ff16156114655760405162461bcd60e51b815260206004820152600d60248201526c105b1c9958591e481d9bdd1959609a1b6044820152606401610a8f565b60008281526003602081905260408220015460ff16600581111561148b5761148b611a31565b146114d85760405162461bcd60e51b815260206004820152601a60248201527f4465636973696f6e20616c72656164792066696e616c697a65640000000000006044820152606401610a8f565b60008281526005602090815260408083203384528252808320805460ff191660011790556004909152812060030180549161151283611e10565b91905055508015611563576000828152600360208190526040909120018054610100900460ff1690600161154583611fae565b91906101000a81548160ff021916908360ff160217905550506115a6565b600082815260036020819052604090912001805462010000900460ff1690600261158c83611fae565b91906101000a81548160ff021916908360ff160217905550505b60008281526003602081905260409182902001549051339184917f32a9e10b7990bbf999008363a02e509a01c64fc9d61d091b6d5b3fbb2a38bbc19161161691869160ff6101008204811692620100009092041690921515835260ff918216602084015216604082015260600190565b60405180910390a36116278261181a565b61163060018055565b5050565b610a268133611906565b600061164a8383610b2e565b6116c8576000838152602081815260408083206001600160a01b03861684529091529020805460ff191660011790556116803390565b6001600160a01b0316826001600160a01b0316847f2f8788117e7eff1d82e926ec794901d17c78024a50270940304540a733656f0d60405160405180910390a4506001610523565b506000610523565b60006116dc8383610b2e565b156116c8576000838152602081815260408083206001600160a01b0386168085529252808320805460ff1916905551339286917ff6391f5c32d9c69d2a47ea670b442974b53935d1edc7fd64eb21e047a839171b9190a4506001610523565b61174361193f565b6002805460ff191690557f5db9ee0a495bf2e6ff9c91a7834c1ba4fdd244a5e8aa4e537bd38aeae4b073aa335b6040516001600160a01b03909116815260200160405180910390a1565b6117956117ca565b6002805460ff191660011790557f62e78cea01bee320cd4e420270b5ea74000d11b0c9f74754ebdbfc544b05a2586117703390565b60025460ff16156117ee5760405163d93c066560e01b815260040160405180910390fd5b565b60026001540361181357604051633ee5aeb560e01b815260040160405180910390fd5b6002600155565b600081815260036020819052604090912060085491810154909160ff908116610100909204161061189c5760038101805460ff19166001179055600a805490600061186483611e10565b9190505550817ff2dcd764b43abebec4b0bb3f52331b94f6326632b24219137cd03b3d06843e4e600142604051610b0f929190611e63565b600381015462010000900460ff16156116305760038101805460ff19166002179055600b80549060006118ce83611e10565b9190505550817ff2dcd764b43abebec4b0bb3f52331b94f6326632b24219137cd03b3d06843e4e600242604051610b0f929190611e63565b6119108282610b2e565b6116305760405163e2517d3f60e01b81526001600160a01b038216600482015260248101839052604401610a8f565b60025460ff166117ee57604051638dfc202b60e01b815260040160405180910390fd5b60006020828403121561197457600080fd5b81356001600160e01b03198116811461198c57600080fd5b9392505050565b6000602082840312156119a557600080fd5b5035919050565b6020808252825182820181905260009190848201906040850190845b818110156119e4578351835292840192918401916001016119c8565b50909695505050505050565b6020808252825182820181905260009190848201906040850190845b818110156119e45783516001600160a01b031683529284019291840191600101611a0c565b634e487b7160e01b600052602160045260246000fd5b60068110611a6557634e487b7160e01b600052602160045260246000fd5b9052565b6000815180845260005b81811015611a8f57602081850181015186830182015201611a73565b506000602082860101526020601f19601f83011685010191505092915050565b8981526001600160a01b0389166020820152604081018890526000610120611ada606084018a611a47565b60ff8816608084015260ff871660a08401528060c0840152611afe81840187611a69565b94151560e084015250506101000152979650505050505050565b80356001600160a01b0381168114611b2f57600080fd5b919050565b600060208284031215611b4657600080fd5b61198c82611b18565b6001600160a01b038616815260a060208201819052600090611b7390830187611a69565b941515604083015250606081019290925260809091015292915050565b60008060408385031215611ba357600080fd5b82359150611bb360208401611b18565b90509250929050565b60008060408385031215611bcf57600080fd5b82359150602083013560068110611be557600080fd5b809150509250929050565b634e487b7160e01b600052604160045260246000fd5b600082601f830112611c1757600080fd5b813567ffffffffffffffff80821115611c3257611c32611bf0565b604051601f8301601f19908116603f01168101908282118183101715611c5a57611c5a611bf0565b81604052838152866020858801011115611c7357600080fd5b836020870160208301376000602085830101528094505050505092915050565b80358015158114611b2f57600080fd5b60008060008060808587031215611cb957600080fd5b84359350602085013567ffffffffffffffff811115611cd757600080fd5b611ce387828801611c06565b935050611cf260408601611c93565b9396929550929360600135925050565b60008060408385031215611d1557600080fd5b611d1e83611b18565b9150602083013567ffffffffffffffff811115611d3a57600080fd5b611d4685828601611c06565b9150509250929050565b6001600160a01b038816815260208101879052611d706040820187611a47565b60ff8516606082015260ff8416608082015260e060a08201526000611d9860e0830185611a69565b905082151560c083015298975050505050505050565b60008060408385031215611dc157600080fd5b82359150611bb360208401611c93565b634e487b7160e01b600052601160045260246000fd5b8181038181111561052357610523611dd1565b634e487b7160e01b600052603260045260246000fd5b600060018201611e2257611e22611dd1565b5060010190565b600181811c90821680611e3d57607f821691505b602082108103611e5d57634e487b7160e01b600052602260045260246000fd5b50919050565b60408101611e718285611a47565b8260208301529392505050565b601f8211156109ca57600081815260208120601f850160051c81016020861015611ea55750805b601f850160051c820191505b81811015611ec457828155600101611eb1565b505050505050565b815167ffffffffffffffff811115611ee657611ee6611bf0565b611efa81611ef48454611e29565b84611e7e565b602080601f831160018114611f2f5760008415611f175750858301515b600019600386901b1c1916600185901b178555611ec4565b600085815260208120601f198616915b82811015611f5e57888601518255948401946001909101908401611f3f565b5085821015611f7c5787850151600019600388901b60f8161c191681555b5050505050600190811b01905550565b604081526000611f9f6040830185611a69565b90508260208301529392505050565b600060ff821660ff8103611fc457611fc4611dd1565b6001019291505056fe566c814873eed56a69b28c40ab27cc2cb150d74068bae3e884ccd44f8de60f8aa264697066735822122028e61968a130c6eededfdd0c95c688a49d40e1c980bb13c9e0554a82af261f3e64736f6c63430008140033",
  "linkReferences": {},
  "deployedLinkReferences": {}
}