{
  "_format": "hh-sol-artifact-1",
  "contractName": "GovernanceVoting",
  "sourceName": "contracts/GovernanceVoting.sol",
  "abi": [
    {
      "inputs": [],
      "stateMutability": "nonpayable",
      "type": "constructor"
    },
    {
      "inputs": [],
      "name": "AccessControlBadConfirmation",
      "type": "error"
    },
    {
      "inputs": [
        {
          "internalType": "address",
          "name": "account",
          "type": "address"
        },
        {
          "internalType": "bytes32",
          "name": "neededRole",
          "type": "bytes32"
        }
      ],
      "name": "AccessControlUnauthorizedAccount",
      "type": "error"
    },
    {
      "inputs": [],
      "name": "ReentrancyGuardReentrantCall",
      "type": "error"
    },
    {
      "anonymous": false,
      "inputs": [
        {
          "indexed": true,
          "internalType": "uint256",
          "name": "proposalId",
          "type": "uint256"
        },
        {
          "indexed": false,
          "internalType": "uint256",
          "name": "timestamp",
          "type": "uint256"
        }
      ],
      "name": "ProposalCancelled",
      "type": "event"
    },
    {
      "anonymous": false,
      "inputs": [
        {
          "indexed": true,
          "internalType": "uint256",
          "name": "proposalId",
          "type": "uint256"
        },
        {
          "indexed": true,
          "internalType": "address",
          "name": "proposer",
          "type": "address"
        },
        {
          "indexed": false,
          "internalType": "enum GovernanceVoting.ProposalType",
          "name": "proposalType",
          "type": "uint8"
        },
        {
          "indexed": false,
          "internalType": "string",
          "name": "title",
          "type": "string"
        },
        {
          "indexed": false,
          "internalType": "uint256",
          "name": "startTime",
          "type": "uint256"
        },
        {
          "indexed": false,
          "internalType": "uint256",
          "name": "endTime",
          "type": "uint256"
        }
      ],
      "name": "ProposalCreated",
      "type": "event"
    },
    {
      "anonymous": false,
      "inputs": [
        {
          "indexed": true,
          "internalType": "uint256",
          "name": "proposalId",
          "type": "uint256"
        },
        {
          "indexed": false,
          "internalType": "uint256",
          "name": "timestamp",
          "type": "uint256"
        }
      ],
      "name": "ProposalExecuted",
      "type": "event"
    },
    {
      "anonymous": false,
      "inputs": [
        {
          "indexed": true,
          "internalType": "uint256",
          "name": "proposalId",
          "type": "uint256"
        },
        {
          "indexed": false,
          "internalType": "enum GovernanceVoting.ProposalStatus",
          "name": "oldStatus",
          "type": "uint8"
        },
        {
          "indexed": false,
          "internalType": "enum GovernanceVoting.ProposalStatus",
          "name": "newStatus",
          "type": "uint8"
        }
      ],
      "name": "ProposalStatusChanged",
      "type": "event"
    },
    {
      "anonymous": false,
      "inputs": [
        {
          "indexed": true,
          "internalType": "bytes32",
          "name": "role",
          "type": "bytes32"
        },
        {
          "indexed": true,
          "internalType": "bytes32",
          "name": "previousAdminRole",
          "type": "bytes32"
        },
        {
          "indexed": true,
          "internalType": "bytes32",
          "name": "newAdminRole",
          "type": "bytes32"
        }
      ],
      "name": "RoleAdminChanged",
      "type": "event"
    },
    {
      "anonymous": false,
      "inputs": [
        {
          "indexed": true,
          "internalType": "bytes32",
          "name": "role",
          "type": "bytes32"
        },
        {
          "indexed": true,
          "internalType": "address",
          "name": "account",
          "type": "address"
        },
        {
          "indexed": true,
          "internalType": "address",
          "name": "sender",
          "type": "address"
        }
      ],
      "name": "RoleGranted",
      "type": "event"
    },
    {
      "anonymous": false,
      "inputs": [
        {
          "indexed": true,
          "internalType": "bytes32",
          "name": "role",
          "type": "bytes32"
        },
        {
          "indexed": true,
          "internalType": "address",
          "name": "account",
          "type": "address"
        },
        {
          "indexed": true,
          "internalType": "address",
          "name": "sender",
          "type": "address"
        }
      ],
      "name": "RoleRevoked",
      "type": "event"
    },
    {
      "anonymous": false,
      "inputs": [
        {
          "indexed": true,
          "internalType": "uint256",
          "name": "proposalId",
          "type": "uint256"
        },
        {
          "indexed": true,
          "internalType": "address",
          "name": "voter",
          "type": "address"
        },
        {
          "indexed": false,
          "internalType": "bool",
          "name": "support",
          "type": "bool"
        },
        {
          "indexed": false,
          "internalType": "uint256",
          "name": "weight",
          "type": "uint256"
        },
        {
          "indexed": false,
          "internalType": "uint256",
          "name": "timestamp",
          "type": "uint256"
        }
      ],
      "name": "VoteCast",
      "type": "event"
    },
    {
      "inputs": [],
      "name": "DEFAULT_ADMIN_ROLE",
      "outputs": [
        {
          "internalType": "bytes32",
          "name": "",
          "type": "bytes32"
        }
      ],
      "stateMutability": "view",
      "type": "function"
    },
    {
      "inputs": [],
      "name": "PROPOSER_ROLE",
      "outputs": [
        {
          "internalType": "bytes32",
          "name": "",
          "type": "bytes32"
        }
      ],
      "stateMutability": "view",
      "type": "function"
    },
    {
      "inputs": [
        {
          "internalType": "uint256",
          "name": "",
          "type": "uint256"
        }
      ],
      "name": "activeProposals",
      "outputs": [
        {
          "internalType": "uint256",
          "name": "",
          "type": "uint256"
        }
      ],
      "stateMutability": "view",
      "type": "function"
    },
    {
      "inputs": [],
      "name": "aegisToken",
      "outputs": [
        {
          "internalType": "contract IERC20",
          "name": "",
          "type": "address"
        }
      ],
      "stateMutability": "view",
      "type": "function"
    },
    {
      "inputs": [],
      "name": "approvalThreshold",
      "outputs": [
        {
          "internalType": "uint256",
          "name": "",
          "type": "uint256"
        }
      ],
      "stateMutability": "view",
      "type": "function"
    },
    {
      "inputs": [
        {
          "internalType": "uint256",
          "name": "_proposalId",
          "type": "uint256"
        }
      ],
      "name": "cancelProposal",
      "outputs": [],
      "stateMutability": "nonpayable",
      "type": "function"
    },
    {
      "inputs": [
        {
          "internalType": "uint256",
          "name": "_proposalId",
          "type": "uint256"
        },
        {
          "internalType": "bool",
          "name": "_support",
          "type": "bool"
        },
        {
          "internalType": "bool",
          "name": "_abstain",
          "type": "bool"
        }
      ],
      "name": "castVote",
      "outputs": [],
      "stateMutability": "nonpayable",
      "type": "function"
    },
    {
      "inputs": [
        {
          "internalType": "enum GovernanceVoting.ProposalType",
          "name": "_proposalType",
          "type": "uint8"
        },
        {
          "internalType": "string",
          "name": "_title",
          "type": "string"
        },
        {
          "internalType": "string",
          "name": "_description",
          "type": "string"
        },
        {
          "internalType": "string",
          "name": "_ipfsHash",
          "type": "string"
        },
        {
          "internalType": "bytes",
          "name": "_executionData",
          "type": "bytes"
        }
      ],
      "name": "createProposal",
      "outputs": [
        {
          "internalType": "uint256",
          "name": "",
          "type": "uint256"
        }
      ],
      "stateMutability": "nonpayable",
      "type": "function"
    },
    {
      "inputs": [
        {
          "internalType": "uint256",
          "name": "_proposalId",
          "type": "uint256"
        }
      ],
      "name": "executeProposal",
      "outputs": [],
      "stateMutability": "nonpayable",
      "type": "function"
    },
    {
      "inputs": [
        {
          "internalType": "uint256",
          "name": "_proposalId",
          "type": "uint256"
        }
      ],
      "name": "finalizeProposal",
      "outputs": [],
      "stateMutability": "nonpayable",
      "type": "function"
    },
    {
      "inputs": [],
      "name": "getActiveProposals",
      "outputs": [
        {
          "internalType": "uint256[]",
          "name": "",
          "type": "uint256[]"
        }
      ],
      "stateMutability": "view",
      "type": "function"
    },
    {
      "inputs": [
        {
          "internalType": "uint256",
          "name": "_proposalId",
          "type": "uint256"
        }
      ],
      "name": "getProposal",
      "outputs": [
        {
          "internalType": "address",
          "name": "proposer",
          "type": "address"
        },
        {
          "internalType": "enum GovernanceVoting.ProposalType",
          "name": "proposalType",
          "type": "uint8"
        },
        {
          "internalType": "string",
          "name": "title",
          "type": "string"
        },
        {
          "internalType": "string",
          "name": "description",
          "type": "string"
        },
        {
          "internalType": "uint256",
          "name": "startTime",
          "type": "uint256"
        },
        {
          "internalType": "uint256",
          "name": "endTime",
          "type": "uint256"
        },
        {
          "internalType": "uint256",
          "name": "votesFor",
          "type": "uint256"
        },
        {
          "internalType": "uint256",
          "name": "votesAgainst",
          "type": "uint256"
        },
        {
          "internalType": "uint256",
          "name": "votesAbstain",
          "type": "uint256"
        },
        {
          "internalType": "enum GovernanceVoting.ProposalStatus",
          "name": "status",
          "type": "uint8"
        }
      ],
      "stateMutability": "view",
      "type": "function"
    },
    {
      "inputs": [
        {
          "internalType": "bytes32",
          "name": "role",
          "type": "bytes32"
        }
      ],
      "name": "getRoleAdmin",
      "outputs": [
        {
          "internalType": "bytes32",
          "name": "",
          "type": "bytes32"
        }
      ],
      "stateMutability": "view",
      "type": "function"
    },
    {
      "inputs": [
        {
          "internalType": "uint256",
          "name": "_proposalId",
          "type": "uint256"
        },
        {
          "internalType": "address",
          "name": "_voter",
          "type": "address"
        }
      ],
      "name": "getVote",
      "outputs": [
        {
          "internalType": "bool",
          "name": "hasVoted",
          "type": "bool"
        },
        {
          "internalType": "bool",
          "name": "support",
          "type": "bool"
        },
        {
          "internalType": "bool",
          "name": "abstain",
          "type": "bool"
        },
        {
          "internalType": "uint256",
          "name": "weight",
          "type": "uint256"
        },
        {
          "internalType": "uint256",
          "name": "timestamp",
          "type": "uint256"
        }
      ],
      "stateMutability": "view",
      "type": "function"
    },
    {
      "inputs": [
        {
          "internalType": "bytes32",
          "name": "role",
          "type": "bytes32"
        },
        {
          "internalType": "address",
          "name": "account",
          "type": "address"
        }
      ],
      "name": "grantRole",
      "outputs": [],
      "stateMutability": "nonpayable",
      "type": "function"
    },
    {
      "inputs": [
        {
          "internalType": "bytes32",
          "name": "role",
          "type": "bytes32"
        },
        {
          "internalType": "address",
          "name": "account",
          "type": "address"
        }
      ],
      "name": "hasRole",
      "outputs": [
        {
          "internalType": "bool",
          "name": "",
          "type": "bool"
        }
      ],
      "stateMutability": "view",
      "type": "function"
    },
    {
      "inputs": [],
      "name": "proposalCount",
      "outputs": [
        {
          "internalType": "uint256",
          "name": "",
          "type": "uint256"
        }
      ],
      "stateMutability": "view",
      "type": "function"
    },
    {
      "inputs": [],
      "name": "proposalThreshold",
      "outputs": [
        {
          "internalType": "uint256",
          "name": "",
          "type": "uint256"
        }
      ],
      "stateMutability": "view",
      "type": "function"
    },
    {
      "inputs": [
        {
          "internalType": "uint256",
          "name": "",
          "type": "uint256"
        },
        {
          "internalType": "uint256",
          "name": "",
          "type": "uint256"
        }
      ],
      "name": "proposalVoters",
      "outputs": [
        {
          "internalType": "address",
          "name": "",
          "type": "address"
        }
      ],
      "stateMutability": "view",
      "type": "function"
    },
    {
      "inputs": [
        {
          "internalType": "uint256",
          "name": "",
          "type": "uint256"
        }
      ],
      "name": "proposals",
      "outputs": [
        {
          "internalType": "uint256",
          "name": "id",
          "type": "uint256"
        },
        {
          "internalType": "address",
          "name": "proposer",
          "type": "address"
        },
        {
          "internalType": "enum GovernanceVoting.ProposalType",
          "name": "proposalType",
          "type": "uint8"
        },
        {
          "internalType": "string",
          "name": "title",
          "type": "string"
        },
        {
          "internalType": "string",
          "name": "description",
          "type": "string"
        },
        {
          "internalType": "string",
          "name": "ipfsHash",
          "type": "string"
        },
        {
          "internalType": "uint256",
          "name": "startTime",
          "type": "uint256"
        },
        {
          "internalType": "uint256",
          "name": "endTime",
          "type": "uint256"
        },
        {
          "internalType": "uint256",
          "name": "votesFor",
          "type": "uint256"
        },
        {
          "internalType": "uint256",
          "name": "votesAgainst",
          "type": "uint256"
        },
        {
          "internalType": "uint256",
          "name": "votesAbstain",
          "type": "uint256"
        },
        {
          "internalType": "enum GovernanceVoting.ProposalStatus",
          "name": "status",
          "type": "uint8"
        },
        {
          "internalType": "bool",
          "name": "executed",
          "type": "bool"
        },
        {
          "internalType": "bytes",
          "name": "executionData",
          "type": "bytes"
        }
      ],
      "stateMutability": "view",
      "type": "function"
    },
    {
      "inputs": [],
      "name": "quorumPercentage",
      "outputs": [
        {
          "internalType": "uint256",
          "name": "",
          "type": "uint256"
        }
      ],
      "stateMutability": "view",
      "type": "function"
    },
    {
      "inputs": [
        {
          "internalType": "bytes32",
          "name": "role",
          "type": "bytes32"
        },
        {
          "internalType": "address",
          "name": "callerConfirmation",
          "type": "address"
        }
      ],
      "name": "renounceRole",
      "outputs": [],
      "stateMutability": "nonpayable",
      "type": "function"
    },
    {
      "inputs": [
        {
          "internalType": "bytes32",
          "name": "role",
          "type": "bytes32"
        },
        {
          "internalType": "address",
          "name": "account",
          "type": "address"
        }
      ],
      "name": "revokeRole",
      "outputs": [],
      "stateMutability": "nonpayable",
      "type": "function"
    },
    {
      "inputs": [
        {
          "internalType": "address",
          "name": "_tokenAddress",
          "type": "address"
        }
      ],
      "name": "setAegisToken",
      "outputs": [],
      "stateMutability": "nonpayable",
      "type": "function"
    },
    {
      "inputs": [
        {
          "internalType": "bytes4",
          "name": "interfaceId",
          "type": "bytes4"
        }
      ],
      "name": "supportsInterface",
      "outputs": [
        {
          "internalType": "bool",
          "name": "",
          "type": "bool"
        }
      ],
      "stateMutability": "view",
      "type": "function"
    },
    {
      "inputs": [
        {
          "internalType": "uint256",
          "name": "_votingPeriod",
          "type": "uint256"
        },
        {
          "internalType": "uint256",
          "name": "_proposalThreshold",
          "type": "uint256"
        },
        {
          "internalType": "uint256",
          "name": "_quorumPercentage",
          "type": "uint256"
        },
        {
          "internalType": "uint256",
          "name": "_approvalThreshold",
          "type": "uint256"
        }
      ],
      "name": "updateParameters",
      "outputs": [],
      "stateMutability": "nonpayable",
      "type": "function"
    },
    {
      "inputs": [
        {
          "internalType": "uint256",
          "name": "",
          "type": "uint256"
        },
        {
          "internalType": "address",
          "name": "",
          "type": "address"
        }
      ],
      "name": "votes",
      "outputs": [
        {
          "internalType": "address",
          "name": "voter",
          "type": "address"
        },
        {
          "internalType": "uint256",
          "name": "proposalId",
          "type": "uint256"
        },
        {
          "internalType": "bool",
          "name": "support",
          "type": "bool"
        },
        {
          "internalType": "bool",
          "name": "abstain",
          "type": "bool"
        },
        {
          "internalType": "uint256",
          "name": "weight",
          "type": "uint256"
        },
        {
          "internalType": "uint256",
          "name": "timestamp",
          "type": "uint256"
        }
      ],
      "stateMutability": "view",
      "type": "function"
    },
    {
      "inputs": [],
      "name": "votingPeriod",
      "outputs": [
        {
          "internalType": "uint256",
          "name": "",
          "type": "uint256"
        }
      ],
      "stateMutability": "view",
      "type": "function"
    }
  ],
  "bytecode": "0x608060405262093a80600755683635c9adc5dea00000600855600a6009556042600a553480156200002f57600080fd5b50600180556200004160003362000075565b506200006e7fb09aa5aeb3702cfd50b6b62bc4532604938f21248a27a1d5ca736082b6819cc13362000075565b5062000124565b6000828152602081815260408083206001600160a01b038516845290915281205460ff166200011a576000838152602081815260408083206001600160a01b03861684529091529020805460ff19166001179055620000d13390565b6001600160a01b0316826001600160a01b0316847f2f8788117e7eff1d82e926ec794901d17c78024a50270940304540a733656f0d60405160405180910390a45060016200011e565b5060005b92915050565b6125c280620001346000396000f3fe608060405234801561001057600080fd5b50600436106101c45760003560e01c80638f61f4f5116100f9578063d23254b411610097578063e0a8f6f511610071578063e0a8f6f5146104a4578063e40824f8146104b7578063ee1eab4f146104ca578063fe132850146104dd57600080fd5b8063d23254b4146103ed578063d547741f14610488578063da35c6641461049b57600080fd5b8063ab89437c116100d3578063ab89437c14610364578063b58131b014610377578063bc3f931f14610380578063c7f758a8146103c457600080fd5b80638f61f4f51461032257806391d1485414610349578063a217fddf1461035c57600080fd5b80632f2ff15d116101665780635584c4f9116101405780635584c4f9146102de5780635652077c146102f35780635bc642bb146103065780637d0eef611461031957600080fd5b80632f2ff15d146102af57806336568abe146102c25780634fa76ec9146102d557600080fd5b80630a8d70a0116101a25780630a8d70a0146102395780630d61b5191461024e5780631d9efa0814610261578063248a9ca31461028c57600080fd5b8063013cf08b146101c957806301ffc9a7146101ff57806302a251a314610222575b600080fd5b6101dc6101d7366004611e7c565b6104f0565b6040516101f69e9d9c9b9a99989796959493929190611f15565b60405180910390f35b61021261020d366004611fd5565b610796565b60405190151581526020016101f6565b61022b60075481565b6040519081526020016101f6565b61024c610247366004612022565b6107cd565b005b61024c61025c366004611e7c565b61089b565b600b54610274906001600160a01b031681565b6040516001600160a01b0390911681526020016101f6565b61022b61029a366004611e7c565b60009081526020819052604090206001015490565b61024c6102bd36600461203d565b6109dc565b61024c6102d036600461203d565b610a07565b61022b60095481565b6102e6610a3f565b6040516101f69190612069565b61024c610301366004611e7c565b610bcb565b61022b610314366004612150565b610e4a565b61022b600a5481565b61022b7fb09aa5aeb3702cfd50b6b62bc4532604938f21248a27a1d5ca736082b6819cc181565b61021261035736600461203d565b6111d2565b61022b600081565b610274610372366004612214565b6111fb565b61022b60085481565b61039361038e36600461203d565b611233565b6040516101f69594939291909415158552921515602085015290151560408401526060830152608082015260a00190565b6103d76103d2366004611e7c565b6112f7565b6040516101f69a99989796959493929190612236565b6104496103fb36600461203d565b60036020818152600093845260408085209091529183529120805460018201546002830154938301546004909301546001600160a01b0390921693909260ff80831693610100909304169186565b604080516001600160a01b03909716875260208701959095529215159385019390935215156060840152608083019190915260a082015260c0016101f6565b61024c61049636600461203d565b611694565b61022b60055481565b61024c6104b2366004611e7c565b6116b9565b61022b6104c5366004611e7c565b61185b565b61024c6104d83660046122b9565b61187c565b61024c6104eb3660046122fb565b611923565b600260208190526000918252604090912080546001820154928201805491936001600160a01b03811693600160a01b90910460ff169290919061053290612337565b80601f016020809104026020016040519081016040528092919081815260200182805461055e90612337565b80156105ab5780601f10610580576101008083540402835291602001916105ab565b820191906000526020600020905b81548152906001019060200180831161058e57829003601f168201915b5050505050908060030180546105c090612337565b80601f01602080910402602001604051908101604052809291908181526020018280546105ec90612337565b80156106395780601f1061060e57610100808354040283529160200191610639565b820191906000526020600020905b81548152906001019060200180831161061c57829003601f168201915b50505050509080600401805461064e90612337565b80601f016020809104026020016040519081016040528092919081815260200182805461067a90612337565b80156106c75780601f1061069c576101008083540402835291602001916106c7565b820191906000526020600020905b8154815290600101906020018083116106aa57829003601f168201915b5050505060058301546006840154600785015460088601546009870154600a880154600b890180549899969895975093959294919360ff80831694610100909304169261071390612337565b80601f016020809104026020016040519081016040528092919081815260200182805461073f90612337565b801561078c5780601f106107615761010080835404028352916020019161078c565b820191906000526020600020905b81548152906001019060200180831161076f57829003601f168201915b505050505090508e565b60006001600160e01b03198216637965db0b60e01b14806107c757506301ffc9a760e01b6001600160e01b03198316145b92915050565b60006107d881611d12565b600b546001600160a01b03161561082a5760405162461bcd60e51b8152602060048201526011602482015270151bdad95b88185b1c9958591e481cd95d607a1b60448201526064015b60405180910390fd5b6001600160a01b0382166108785760405162461bcd60e51b8152602060048201526015602482015274496e76616c696420746f6b656e206164647265737360581b6044820152606401610821565b50600b80546001600160a01b0319166001600160a01b0392909216919091179055565b60006108a681611d12565b6108ae611d1c565b600082815260026020526040812080549091036108dd5760405162461bcd60e51b815260040161082190612371565b6002600a82015460ff1660058111156108f8576108f8611e95565b1461093b5760405162461bcd60e51b8152602060048201526013602482015272141c9bdc1bdcd85b081b9bdd081c185cdcd959606a1b6044820152606401610821565b600a810154610100900460ff16156109885760405162461bcd60e51b815260206004820152601060248201526f105b1c9958591e48195e1958dd5d195960821b6044820152606401610821565b600a8101805461ffff191661010417905560405142815283907ff758fc91e01b00ea6b4a6138756f7f28e021f9bf21db6dbf8c36c88eb737257a9060200160405180910390a2506109d860018055565b5050565b6000828152602081905260409020600101546109f781611d12565b610a018383611d46565b50505050565b6001600160a01b0381163314610a305760405163334bd91960e11b815260040160405180910390fd5b610a3a8282611dd8565b505050565b60606000805b600654811015610ac05760016002600060068481548110610a6857610a686123a8565b600091825260208083209091015483528201929092526040019020600a015460ff166005811115610a9b57610a9b611e95565b03610aae5781610aaa816123d4565b9250505b80610ab8816123d4565b915050610a45565b5060008167ffffffffffffffff811115610adc57610adc6120ad565b604051908082528060200260200182016040528015610b05578160200160208202803683370190505b5090506000805b600654811015610bc25760016002600060068481548110610b2f57610b2f6123a8565b600091825260208083209091015483528201929092526040019020600a015460ff166005811115610b6257610b62611e95565b03610bb05760068181548110610b7a57610b7a6123a8565b9060005260206000200154838381518110610b9757610b976123a8565b602090810291909101015281610bac816123d4565b9250505b80610bba816123d4565b915050610b0c565b50909392505050565b610bd3611d1c565b60008181526002602052604081208054909103610c025760405162461bcd60e51b815260040161082190612371565b6001600a82015460ff166005811115610c1d57610c1d611e95565b14610c605760405162461bcd60e51b815260206004820152601360248201527250726f706f73616c206e6f742061637469766560681b6044820152606401610821565b80600601544211610cb35760405162461bcd60e51b815260206004820152601760248201527f566f74696e6720706572696f64206e6f7420656e6465640000000000000000006044820152606401610821565b6000816009015482600801548360070154610cce91906123ed565b610cd891906123ed565b90506000600b60009054906101000a90046001600160a01b03166001600160a01b03166318160ddd6040518163ffffffff1660e01b8152600401602060405180830381865afa158015610d2f573d6000803e3d6000fd5b505050506040513d601f19601f82011682018060405250810190610d539190612400565b600a84015460095491925060ff1690610d6c9083612419565b610d77846064612419565b1015610d9957600a840180546003919060ff19166001835b0217905550610df5565b600a5484600801548560070154610db091906123ed565b610dba9190612419565b6007850154610dca906064612419565b10610de557600a840180546002919060ff1916600183610d8f565b600a8401805460ff191660031790555b600a84015460405186917fb0978968e606225988b6464f99ce7e86b0e8770d80eaec1369bb3780e05c643891610e3291859160ff90911690612430565b60405180910390a250505050610e4760018055565b50565b6000610e54611d1c565b600b546001600160a01b0316610e9c5760405162461bcd60e51b815260206004820152600d60248201526c151bdad95b881b9bdd081cd95d609a1b6044820152606401610821565b600854600b546040516370a0823160e01b81523360048201526001600160a01b03909116906370a0823190602401602060405180830381865afa158015610ee7573d6000803e3d6000fd5b505050506040513d601f19601f82011682018060405250810190610f0b9190612400565b1015610f595760405162461bcd60e51b815260206004820152601e60248201527f496e73756666696369656e7420746f6b656e7320746f2070726f706f736500006044820152606401610821565b60058054906000610f69836123d4565b90915550506005546007544290600090610f8390836123ed565b604080516101c08101825285815233602082015291925081018a6004811115610fae57610fae611e95565b815260200189815260200188815260200187815260200183815260200182815260200160008152602001600081526020016000815260200160016005811115610ff957610ff9611e95565b8152600060208083018290526040928301899052868252600281529082902083518155908301516001820180546001600160a01b039092166001600160a01b031983168117825593850151929390916001600160a81b03191617600160a01b83600481111561106a5761106a611e95565b0217905550606082015160028201906110839082612499565b50608082015160038201906110989082612499565b5060a082015160048201906110ad9082612499565b5060c0820151816005015560e0820151816006015561010082015181600701556101208201518160080155610140820151816009015561016082015181600a0160006101000a81548160ff0219169083600581111561110e5761110e611e95565b0217905550610180820151600a820180549115156101000261ff00199092169190911790556101a0820151600b8201906111489082612499565b5050600680546001810182556000919091527ff652222313e28459528d920b65115c16c04f3efc82aaedc97be59f3f377c0d3f0184905550604051339084907f47a2aa5c08b3748005a89b7e0e9fa72c7117a4dc828ffc76e92b275d069317d4906111ba908d908d9088908890612559565b60405180910390a35050600180559695505050505050565b6000918252602082815260408084206001600160a01b0393909316845291905290205460ff1690565b6004602052816000526040600020818154811061121757600080fd5b6000918252602090912001546001600160a01b03169150829050565b60008281526003602081815260408084206001600160a01b038087168652908352818520825160c0810184528154909216808352600182015494830194909452600281015460ff8082161515948401949094526101009004909216151560608201529281015460808401526004015460a083015282918291829182916112cb57600080600080600095509550955095509550506112ed565b60018160400151826060015183608001518460a0015195509550955095509550505b9295509295909350565b600081815260026020908152604080832081516101c0810183528154815260018201546001600160a01b03811694820194909452849360609384938693849384938493849384938493919291830190600160a01b900460ff16600481111561136157611361611e95565b600481111561137257611372611e95565b815260200160028201805461138690612337565b80601f01602080910402602001604051908101604052809291908181526020018280546113b290612337565b80156113ff5780601f106113d4576101008083540402835291602001916113ff565b820191906000526020600020905b8154815290600101906020018083116113e257829003601f168201915b5050505050815260200160038201805461141890612337565b80601f016020809104026020016040519081016040528092919081815260200182805461144490612337565b80156114915780601f1061146657610100808354040283529160200191611491565b820191906000526020600020905b81548152906001019060200180831161147457829003601f168201915b505050505081526020016004820180546114aa90612337565b80601f01602080910402602001604051908101604052809291908181526020018280546114d690612337565b80156115235780601f106114f857610100808354040283529160200191611523565b820191906000526020600020905b81548152906001019060200180831161150657829003601f168201915b50505091835250506005828101546020830152600683015460408301526007830154606083015260088301546080830152600983015460a0830152600a83015460c09092019160ff169081111561157c5761157c611e95565b600581111561158d5761158d611e95565b8152600a820154610100900460ff1615156020820152600b820180546040909201916115b890612337565b80601f01602080910402602001604051908101604052809291908181526020018280546115e490612337565b80156116315780601f1061160657610100808354040283529160200191611631565b820191906000526020600020905b81548152906001019060200180831161161457829003601f168201915b505050505081525050905080602001518160400151826060015183608001518460c001518560e001518661010001518761012001518861014001518961016001519a509a509a509a509a509a509a509a509a509a50509193959799509193959799565b6000828152602081905260409020600101546116af81611d12565b610a018383611dd8565b6116c1611d1c565b600081815260026020526040812080549091036116f05760405162461bcd60e51b815260040161082190612371565b60018101546001600160a01b031633148061171157506117116000336111d2565b61174e5760405162461bcd60e51b815260206004820152600e60248201526d139bdd08185d5d1a1bdc9a5e995960921b6044820152606401610821565b6000600a82015460ff16600581111561176957611769611e95565b148061178d57506001600a82015460ff16600581111561178b5761178b611e95565b145b6117c95760405162461bcd60e51b815260206004820152600d60248201526c10d85b9b9bdd0818d85b98d95b609a1b6044820152606401610821565b600a8101805460ff19811660051790915560405142815260ff9091169083907f5be67b1762c29673dceae3c1de04ecbf702ab0755c93f0fcc8aec5252df5a2b49060200160405180910390a2827fb0978968e606225988b6464f99ce7e86b0e8770d80eaec1369bb3780e05c6438826005604051611848929190612430565b60405180910390a25050610e4760018055565b6006818154811061186b57600080fd5b600091825260209091200154905081565b600061188781611d12565b60648311156118c95760405162461bcd60e51b815260206004820152600e60248201526d496e76616c69642071756f72756d60901b6044820152606401610821565b606482111561190e5760405162461bcd60e51b8152602060048201526011602482015270125b9d985b1a59081d1a1c995cda1bdb19607a1b6044820152606401610821565b50600793909355600891909155600955600a55565b61192b611d1c565b600b546001600160a01b03166119735760405162461bcd60e51b815260206004820152600d60248201526c151bdad95b881b9bdd081cd95d609a1b6044820152606401610821565b60008381526002602052604081205490036119a05760405162461bcd60e51b815260040161082190612371565b60016000848152600260205260409020600a015460ff1660058111156119c8576119c8611e95565b14611a0b5760405162461bcd60e51b815260206004820152601360248201527250726f706f73616c206e6f742061637469766560681b6044820152606401610821565b600083815260026020526040902060060154421115611a625760405162461bcd60e51b8152602060048201526013602482015272159bdd1a5b99c81c195c9a5bd908195b991959606a1b6044820152606401610821565b60008381526003602090815260408083203384529091529020546001600160a01b031615611ac25760405162461bcd60e51b815260206004820152600d60248201526c105b1c9958591e481d9bdd1959609a1b6044820152606401610821565b600b546040516370a0823160e01b81523360048201526000916001600160a01b0316906370a0823190602401602060405180830381865afa158015611b0b573d6000803e3d6000fd5b505050506040513d601f19601f82011682018060405250810190611b2f9190612400565b905060008111611b735760405162461bcd60e51b815260206004820152600f60248201526e2737903b37ba34b733903837bbb2b960891b6044820152606401610821565b6040805160c0810182523380825260208083018881528715158486019081528715801560608701908152608087018981524260a0890190815260008e815260038089528b82208a835289528b82209a518b546001600160a01b03919091166001600160a01b0319918216178c5597516001808d0191909155965160028c018054965115156101000261ff00199215159290921661ffff19909716969096171790945591519289019290925590516004978801558b815295845295852080549182018155855291909320018054909216179055611c755760008481526002602052604081206009018054839290611c6a9084906123ed565b90915550611cc39050565b8215611c9c5760008481526002602052604081206007018054839290611c6a9084906123ed565b60008481526002602052604081206008018054839290611cbd9084906123ed565b90915550505b6040805184151581526020810183905242818301529051339186917f77a255f45c79d26605c257d8dfc37f9a619f53963ddbed1e95aa0aab1c801cee9181900360600190a350610a3a60018055565b610e478133611e43565b600260015403611d3f57604051633ee5aeb560e01b815260040160405180910390fd5b6002600155565b6000611d5283836111d2565b611dd0576000838152602081815260408083206001600160a01b03861684529091529020805460ff19166001179055611d883390565b6001600160a01b0316826001600160a01b0316847f2f8788117e7eff1d82e926ec794901d17c78024a50270940304540a733656f0d60405160405180910390a45060016107c7565b5060006107c7565b6000611de483836111d2565b15611dd0576000838152602081815260408083206001600160a01b0386168085529252808320805460ff1916905551339286917ff6391f5c32d9c69d2a47ea670b442974b53935d1edc7fd64eb21e047a839171b9190a45060016107c7565b611e4d82826111d2565b6109d85760405163e2517d3f60e01b81526001600160a01b038216600482015260248101839052604401610821565b600060208284031215611e8e57600080fd5b5035919050565b634e487b7160e01b600052602160045260246000fd5b60058110611ebb57611ebb611e95565b9052565b6000815180845260005b81811015611ee557602081850181015186830182015201611ec9565b506000602082860101526020601f19601f83011685010191505092915050565b60068110611ebb57611ebb611e95565b8e81526001600160a01b038e166020820152611f34604082018e611eab565b6101c060608201526000611f4c6101c083018e611ebf565b8281036080840152611f5e818e611ebf565b905082810360a0840152611f72818d611ebf565b90508a60c08401528960e0840152886101008401528761012084015286610140840152611fa3610160840187611f05565b8415156101808401528281036101a0840152611fbf8185611ebf565b9150509f9e505050505050505050505050505050565b600060208284031215611fe757600080fd5b81356001600160e01b031981168114611fff57600080fd5b9392505050565b80356001600160a01b038116811461201d57600080fd5b919050565b60006020828403121561203457600080fd5b611fff82612006565b6000806040838503121561205057600080fd5b8235915061206060208401612006565b90509250929050565b6020808252825182820181905260009190848201906040850190845b818110156120a157835183529284019291840191600101612085565b50909695505050505050565b634e487b7160e01b600052604160045260246000fd5b600082601f8301126120d457600080fd5b813567ffffffffffffffff808211156120ef576120ef6120ad565b604051601f8301601f19908116603f01168101908282118183101715612117576121176120ad565b8160405283815286602085880101111561213057600080fd5b836020870160208301376000602085830101528094505050505092915050565b600080600080600060a0868803121561216857600080fd5b85356005811061217757600080fd5b9450602086013567ffffffffffffffff8082111561219457600080fd5b6121a089838a016120c3565b955060408801359150808211156121b657600080fd5b6121c289838a016120c3565b945060608801359150808211156121d857600080fd5b6121e489838a016120c3565b935060808801359150808211156121fa57600080fd5b50612207888289016120c3565b9150509295509295909350565b6000806040838503121561222757600080fd5b50508035926020909101359150565b6001600160a01b038b1681526000610140612254602084018d611eab565b8060408401526122668184018c611ebf565b9050828103606084015261227a818b611ebf565b9150508760808301528660a08301528560c08301528460e0830152836101008301526122aa610120830184611f05565b9b9a5050505050505050505050565b600080600080608085870312156122cf57600080fd5b5050823594602084013594506040840135936060013592509050565b8035801515811461201d57600080fd5b60008060006060848603121561231057600080fd5b83359250612320602085016122eb565b915061232e604085016122eb565b90509250925092565b600181811c9082168061234b57607f821691505b60208210810361236b57634e487b7160e01b600052602260045260246000fd5b50919050565b60208082526017908201527f50726f706f73616c20646f6573206e6f74206578697374000000000000000000604082015260600190565b634e487b7160e01b600052603260045260246000fd5b634e487b7160e01b600052601160045260246000fd5b6000600182016123e6576123e66123be565b5060010190565b808201808211156107c7576107c76123be565b60006020828403121561241257600080fd5b5051919050565b80820281158282048414176107c7576107c76123be565b6040810161243e8285611f05565b611fff6020830184611f05565b601f821115610a3a57600081815260208120601f850160051c810160208610156124725750805b601f850160051c820191505b818110156124915782815560010161247e565b505050505050565b815167ffffffffffffffff8111156124b3576124b36120ad565b6124c7816124c18454612337565b8461244b565b602080601f8311600181146124fc57600084156124e45750858301515b600019600386901b1c1916600185901b178555612491565b600085815260208120601f198616915b8281101561252b5788860151825594840194600190910190840161250c565b50858210156125495787850151600019600388901b60f8161c191681555b5050505050600190811b01905550565b6125638186611eab565b6080602082015260006125796080830186611ebf565b604083019490945250606001529291505056fea2646970667358221220128242aed2a1c5421adaf01ca92ad6ef5db7a1794f6a0c37b9db48c45279635e64736f6c63430008140033",
  "linkReferences": {},
  "deployedLinkReferences": {}
}